:100000000C94E8020C9420030C9420030C9420031D
:100010000C9420030C9420030C9420030C942003D4
:100020000C9420030C9420030C9420030C9497222E
:100030000C9453220C9466230C9420030C942003FC
:100040000C9420030C9420030C9420030C94422362
:100050000C9420030C9420030C9420030C94200394
:100060000C9420030C9420030C9420030C94200384
:100070000C9420031000360000000A000B00000062
:1000800006001900000005001100000018000C0017
:10009000000017001C0000000800150000002B2FB6
:1000A0002D005B5D0101500028290101500065769B
:1000B000616C202224287373682D6167656E74203B
:1000C0002D732922002222010150007B7D01015065
:1000D000002F2A0A0A2A2F010150003C3E0101503C
:1000E0000001012A7A0001012A5A0001012A7175D2
:1000F0000001012A517500504F52514A4D4B4E2A72
:100100004C2F30B6B7ABACBBBCA9AABDBE0D0E0B15
:100110000F1A0508050905071811130408120C74B5
:100120006800546800746800546800635210003618
:10013000000E000F00120027002D00645237003817
:10014000003300340013002F002E006552E5004EEE
:100150000028002A00300031003500E000E10039BD
:100160000004002B001400167C1E00E30000001D9C
:100170000016001A0008001F002000E2001B000704
:1001800000090015001700210022002C00060019AC
:10019000000A001C00180023002400E200050011E2
:1001A000000B000D000C0025002600587C0F0036C7
:1001B0000008341238130027002D0064523700382D
:1001C000000C00340033002F002E007A7CE5004E36
:1001D0000028002A00300031003500797CE1002A37
:1001E0000004002B001400167C1E00000000001DFF
:1001F000001628070015001F00200000001B000B40
:100200002417211A000500210022002C43100006AB
:10021000000A000D00090023002400A25219000E5C
:10022000001C001131180025002600587C1800120F
:100230000008340C3834022700440064521C0005C6
:10024000000B0000003400000045007A7C00004EE6
:100250000000000000000000000000797C00000E9B
:1002600040060000000D0000001E00000000001B02
:100270000016280A0010001F0020001500090011B8
:1002800024172113001900210022002C430F00071E
:10029000000E003502370023002400A2521A002D60
:1002A0000036000431380025002600587C4E0049F5
:1002B0000051004F004A004300440000004D00AAD6
:1002C00000AE000000A900000045007A7C00004B51
:1002D0000000000000000000000000797C00000029
:1002E0000000000000390000003A0000000000316A
:1002F00000E300000011133B003C0000001F02E27D
:1003000000E0001713417E3D003E00010024022D55
:1003100002407E00004B003F004000A252460076A3
:100320000065005000520041004200587C214022EC
:10033000401F402040264027004400010023404544
:100340000044000000430000004500655200004BDF
:1003500000000000000000000000007A7C000000A7
:100360000000000000000000001E0000000000204F
:1003700002E300000000001F00200000002102E254
:1003800000E00000003602210022002C002202239F
:100390000237003800244023002400A2522E002DF2
:1003A0000027001E40254025002600000000000018
:1003B000000000000000000000000000000000003D
:1003C000000000000000000000000001000000002C
:1003D000000000000000000000000000000000001D
:1003E00000717C00000000007C00000000000000A4
:1003F00000727C000000000000000000000000709F
:100400007C447E427E0000000000000000000043AB
:100410007E0000000000000000000000000000005E
:1004200000000000000000000000000000000000CC
:1004300000000000000000000000000000000000BC
:100440000000000000000000000000000000007E2E
:100450000F00D4FFFFFFC70000007800000000007D
:100460000000002A2B28000000000000000000000F
:1004700000000000000029000000002C1E34202194
:100480002224342627252E362D3738271E1F2021DB
:1004900022232425263333362E37381F040506073A
:1004A00008090A0B0C0D0E0F101112131415161754
:1004B00018191A1B1C1D2F3130232D350405060772
:1004C00008090A0B0C0D0E0F101112131415161734
:1004D00018191A1B1C1D2F3130354C05010980A13C
:1004E00001850319012AB700150126B7009501758A
:1004F000108100C0050C0901A101850419012AA081
:1005000002150126A002950175108100C0050109A0
:1005100006A101050719E029E715002501950875D1
:100520000181029501750881010507190029FF1550
:100530000026FF00950675088100050819012905A8
:10054000150025019505750191029501750391012D
:10055000C009023B00020100A0FA090400000103E7
:100560000101000921110100012244000705810356
:100570000800010904010001030000000921110124
:10058000000122320007058203200001120100024F
:1005900000000008736864640100010200010E039A
:1005A00041006C00700073003600340000000A0344
:1005B00048006100730075000000040309042C006A
:1005C00008001700060037002C001900160037003D
:1005D00011241FBECFEFD4E0DEBFCDBF04B603FEB3
:1005E00018C08091D5039091D603A091D703B09104
:1005F000D8038730904BA740B04B59F41092D503E5
:100600001092D6031092D7031092D803E0E0F8E3DB
:10061000099523E0A0EDB1E001C01D92A53DB20710
:10062000E1F711E0A0E0B1E0EAE1FFE402C00590EB
:100630000D92A03DB107D9F70E948D230C946E272F
:100640000C940000813121E3920799F0A8F48B30DB
:1006500024E2920771F030F48731914251F083EC3B
:1006600090E00895863128E2920719F08430914392
:10067000B1F787ED90E00895813124E39207C9F343
:1006800020F48830944359F7F4CF8C3028E3920754
:1006900081F38231984319F7ECCFE8ECF5E08591CE
:1006A00094912091CD033091CE032817390709F595
:1006B000EAECF5E0859194912091CF033091D0033D
:1006C00028173907B1F4ECECF5E08591949120916D
:1006D000D1033091D2032817390759F4EEECF5E035
:1006E000859194912091D3033091D4032817390731
:1006F00089F0ABECB3E08EEB95E04D915D91FC01A0
:10070000259134914217530739F4029623E0A53D11
:10071000B20799F780E0089581E00895A82FB62FD9
:100720002091C40340917B03241302C080E008950C
:1007300030E0C90169E070E00E947E26FC01E458C7
:10074000FC4F8181B81306C08081A81303C0858146
:100750008111EDCF2F5F3F4F2770E6CF2091E4004E
:100760003091E50095E6A9012091EC00822F81707F
:1007700020FF06C08091E80080FF06C080E0089559
:100780002091E80022FD1AC080917103882389F02E
:10079000853089F08091EB0085FD0FC02091E40049
:1007A0003091E50042175307F9F29150E1F684E0E9
:1007B000089582E0089583E0089581E0089580918E
:1007C000730387FF13C08091E80082FF06C0809109
:1007D000E8008B778093E80004C080917103811159
:1007E000F2CF0895809171038823D9F38091E800B6
:1007F00080FFF8CF8091E8008E77ECCF982F909310
:10080000E900242F762F50E0891731F07091EC0029
:100810002091ED005091F00021FD07C09F5F9530C1
:1008200071F78093E90081E008953091EB003E7FFD
:100830003093EB003091ED003D7F3093ED0030912F
:10084000EB0031603093EB007093EC002093ED00EF
:100850005093F0002091EE0027FDE0CF80E0089556
:10086000FC018091790390917A0386179707A0F095
:100870006115710529F49091E8009E779093E80046
:1008800090E06115710551F4911108C08091E80064
:1008900082FF32C080E00895BC01F2CF80917103E5
:1008A0008823B1F18530B1F18091E80083FD2EC03D
:1008B0008091E80082FDEACF8091E80080FFE1CFDF
:1008C0002091F20030E06115710519F028303105F2
:1008D00058F091E02830310509F090E02091E800CF
:1008E0002E772093E800CDCF81918093F100615065
:1008F00071092F5F3F4FE7CF80917103882341F04B
:10090000853041F08091E80083FFC0CF81E00895F9
:1009100082E0089583E00895089508958091660324
:1009200008959C014FB7F894809160039091610302
:10093000A0916203B09163034FBF821B930B089594
:100940002FB7F8948091600390916103A0916203A6
:10095000B09163032FBF0895E4EDF1E09191891305
:1009600003C0DF0111971C9291E0EA3DF907B1F74E
:100970000895A4EDB1E0EFEF90E02D91821751F0D2
:10098000EF3F19F4211101C0E92F9F5F9630A9F7BD
:10099000EF3F09F408950E2E000CFF0BEE52FE4FB0
:1009A00082830895A3E0B0E0E8EDF4E00C94A5267E
:1009B00020915D0330915E0328173907A1F09093D1
:1009C0005E0380935D03E0915B03F0915C033097DD
:1009D00051F024E029839B838A830084F185E02DF4
:1009E000CE01019609952396E2E00C94C126A3E07E
:1009F000B0E0EDEFF4E00C94A5262091590330917E
:100A00005A0328173907A1F090935A03809359038A
:100A1000E0915B03F0915C03309751F023E0298370
:100A20009B838A830084F185E02DCE010196099590
:100A30002396E2E00C94C126E0915B03F0915C0305
:100A4000309729F00190F081E02D0995089580E01C
:100A50000895DC0130E020E0FD01E20FF31FE49196
:100A6000E41307C0E1E0E227EA0FFB2FF11D8491B8
:100A700008952F5F3F4F261778F380E00895382FB1
:100A800020915503622F022E000C770B082E000CCC
:100A9000990B0E947E2697FF03C03093550308955B
:100AA0008F3791051CF4230F20935503089520914F
:100AB0004B0330914C0382179307C9F420914D03E7
:100AC00030914E0380914F0390915003282B392B86
:100AD0008091510390915203282B392B809153031D
:100AE00090915403282B392B81E0232B09F080E0CF
:100AF00081700895A0914703509148034A2F5413E1
:100B000001C00895242F30E0F901EE0FFF1FE15CD2
:100B1000FC4F608171816817790791F467E070E09C
:100B20000E947E26815F9E4F51E0FC0154834A1350
:100B3000E8CF2F5F3F4F237033272093470308955B
:100B40002F5F3F4F422F4370DACF1092D3021092A3
:100B5000D202EFE0F1E080E491E02581211102C0B2
:100B60001482168237968E179F07B9F7089580E092
:100B70000895F894E82FE295EF70F0E031A1282F66
:100B80002F7081E090E001C0880F2A95EAF7982F36
:100B90009095932391A392A1892B82A37894089591
:100BA00090916C0292FF10C041E0282F24712430F4
:100BB00009F040E031E0282F2871283009F030E0BA
:100BC000431711F02CE0822793FF10C041E0282F3B
:100BD0002471243109F040E031E0282F28712831B8
:100BE00009F030E0431711F02CE0822730916D02BC
:100BF00030FF10C051E0282F2171213009F050E062
:100C000041E0282F2871283009F040E0541711F0F6
:100C100029E0822731FF10C041E0282F21712131C6
:100C200009F040E031E0282F2871283109F030E048
:100C3000431711F029E0822794FD877E08958238BA
:100C40009105B9F1B0F48133910509F47DC048F400
:100C50008932910509F46DC08A32910509F47BC08F
:100C600008958533910509F45FC08933910509F131
:100C70000895833E9105D9F138F4803E910529F11C
:100C8000823E910579F10895863E9105D9F1873E1E
:100C9000910509F43EC0843E910541F520916D0215
:100CA00021FF24C080916C0284FD19C087EE90E082
:100CB000089520916C02237009F05AC020916D02B2
:100CC00023FF14C089E290E0089520916C0220FD7A
:100CD00038C030916D0230FF09C024FF43C090E05E
:100CE00080E0089520916C0222FDF7CF08952091B5
:100CF0006C0222FD3AC030916D0230FD39C024FFF4
:100D0000F5CFEDCF20916C0223FFF0CF24FDE7CF8C
:100D1000CDCF20916C0223FD2EC030916D0231FFAA
:100D2000EECF84EE90E0089520916C0225FFDECF97
:100D3000C9CF20916C0225FD21C020916D0223FFB7
:100D4000D5CF89E390E0D2CF20916C0226FFCECFA1
:100D50008AE290E0089520916C0226FFC7CF81E3DC
:100D600090E0089583EE90E0089582EE90E008957B
:100D700080EE90E0089586EE90E0089585E390E09F
:100D800008957830D8F46830C8F48630D0F4E82F6D
:100D9000F0E083E0EE0FFF1F8A95E1F7E70FF11D0A
:100DA00093E0EE0FFF1F9A95E1F7E60FF11DEE0FAE
:100DB000FF1FE55DFE4F85919491089580E090E0DE
:100DC000089581E0FCCF1F93CF93DF930E941F060D
:100DD000EC01C11580E5D807F0F5C11580E4D8070E
:100DE00008F09EC0C03ED10520F5CD3CD10508F0ED
:100DF00084C0C83AD10578F4C53AD10508F075C069
:100E0000C130D10519F1209709F1C430D105F0F4B2
:100E1000D0E0C0E01BC0C33CD105D0F7C85AD0E039
:100E2000CC0FDD1FC757DE4F0990D881C02DD46489
:100E30000DC0C11580E2D80708F0D7C0C11581E008
:100E4000D80708F05CC0C83ED10510F7CE01DF918D
:100E5000CF911F910895C03682E5D80728F5C03498
:100E600082E5D80708F06DC0C03282E5D80708F0E7
:100E700061C0C11582E5D80708F49DC02C2F2695C6
:100E8000269530E085E0220F331F8A95E1F78C2FFD
:100E90008370C1E0D0E002C0CC0FDD1F8A95E2F77D
:100EA000C22BD32BDD68D2CFC03A82E5D80760F4DD
:100EB000C03882E5D80708F45BC0CF71D0E0DC2FE2
:100EC000CC27C46FD06AC2CFC03C82E5D80708F4F3
:100ED00066C0C03E82E5D80708F09ACFDC2FCC2749
:100EE000CC27DF71C06FD06AB1CFC55AD0E0CA57E6
:100EF000DE4FC881D0E0D064A9CFD065A7CF8D2FB9
:100F00000E94D005182FCE0199270E941F06C12FDD
:100F1000D0E0DC2FCC27CC27DF71C82BD92B96CF84
:100F2000CE0199270E941F06CC27DF70C82BD92B32
:100F3000D06A8CCFCF71D0E0DC2FCC27C16FD06AC4
:100F400085CF2C2F26952695277030E0B5E0220F0F
:100F5000331FBA95E1F78C2F8370C1E0D0E002C057
:100F6000CC0FDD1F8A95E2F7C22BD32BDC686ECF46
:100F70002C2F26952695277030E0A5E0220F331FF1
:100F8000AA95E1F78C2F8370C1E0D0E002C0CC0FAE
:100F9000DD1F8A95E2F7C22BD32BDA6857CF8C2F4F
:100FA0008F710E94D005C82FD0E0DC2FCC27CC2732
:100FB000DF71D0624BCF8C2F8F710E94D00555E02E
:100FC000D695C7955A95E1F7CF70D0E0DC2FCC27A6
:100FD000282F30E084FF05C044E0220F331F4A95DC
:100FE000E1F7C22BD32BD06931CF8D2F8F710E94A7
:100FF000D005182FCE0199270E941F06C12FD0E0DF
:10100000DC2FCC27CC27DF71C82BD92BD2CF8091F6
:10101000530281111092530208958091D1028111DF
:101020000FC0109264030E9407080E94A004885712
:101030009C4E9093D0028093CF0281E08093D102A6
:10104000089590915302292F282321F08095892318
:101050008093530208958095909164039823909310
:10106000640308958091C40390917B03981301C099
:1010700008958F5F8770FACFB0E0A0E0E2E4F8E077
:101080000C949E267C0100916A0210916B02809163
:10109000680290916902082B192BCFE0D0E0CC2494
:1010A000C394D12CBC2EC6010C2E02C0880F991FF0
:1010B0000A94E2F780239123892B49F4219790F732
:1010C000B12C8B2DCDB7DEB7E9E00C94BA26B70171
:1010D0008C2F0E94C1060E94E306019779F3F1CF9D
:1010E000CF93DF93EC010E943C08BE010E94C10631
:1010F0000E94E306DF91CF910895983088F58830FB
:1011000078F5E92FF0E093E0EE0FFF1F9A95E1F7F5
:10111000E80FF11D6E2F677023E0F695E7952A958D
:10112000E1F7EE0FFF1FEE0FFF1FEF5DFD4F50E0E9
:1011300040E080E0219130E0062E02C036952795F0
:101140000A94E2F721703327042E01C0220F0A947B
:10115000EAF7822B4F5F5F4F4430510559F70895EE
:1011600080E008959830A8F5883098F5E92FF0E0F0
:1011700093E0EE0FFF1F9A95E1F7E80FF11D2E2F78
:10118000277041E001C0440F2A95EAF723E0F69565
:10119000E7952A95E1F7EE0FFF1FEE0FFF1FEF5DBA
:1011A000FD4F30E020E070E05191DF011197CB015D
:1011B000022E02C0969587950A94E2F78170819578
:1011C0008527842385278C932F5F3F4F243031055B
:1011D00059F7089590936B0280936A02089521E075
:1011E00030E002C0220F331F8A95E2F72095309538
:1011F00080916A0290916B02822393230E94EA08F5
:10120000089590914A028095892380934A02282F5D
:10121000277069F4891759F090916D0292FF07C009
:101220008695869586950E94EF0810924A02089549
:1012300021E030E002C0220F331F8A95E2F780914F
:101240006A0290916B02822B932B0E94EA08089508
:1012500090936902809368020895FC018481882339
:10126000F9F087819085009791F00E94E3069295AE
:101270009F709630B9F080F4925F9F70923080F446
:10128000803F19F058F4883E58F481E00895808139
:1012900091810E947008EBCF9A5FEFCF843FA9F352
:1012A00080E00895883E88F3813FD1F7EECF81FF3B
:1012B00003C0459A81E008954598FCCFA6E0B0E0D0
:1012C000E4E6F9E00C94A4269C01FC01878190855A
:1012D0000097E1F486E0DE01119601900D928A9567
:1012E000E1F7F901258189819A81222399F066230A
:1012F00089F00E943C08182F682F89819A810E94EA
:10130000B20869817A81812F0E94C1062696E3E0A6
:101310000C94C0260E947D08182FF3CF9C013A95AB
:1013200021153F4150F5FC01EE27F170BC01662705
:101330007270AC01442754709C012227387094FFCE
:101340000EC080E1EF2B09F480E0672B09F080628A
:10135000452B09F08064232B89F08068089581E093
:10136000EF2B09F480E0672B09F08260452B09F030
:101370008460232B19F08860089580E0089580939D
:1013800010020895209164032D79F1F49C013052EC
:101390002115304308F499279C01245031092A3142
:1013A000310530F08433910519F058F48C9761F4CD
:1013B000FB0180819181816090935A028093590250
:1013C0000895C6970297A0F310925A0210925902FC
:1013D00008950F931F93CF93DF938B01EA019091B0
:1013E0007103943061F58093E9008FEF9091E800EC
:1013F000815095FD06C095ED9A95F1F70000811199
:10140000F5CF8091E80085FF1AC00E94AE038111DC
:1014100011C08091E80085FD06C08091E8008E77BC
:101420008093E800F2CFF80181918F018093F10061
:10143000219779F78091E8008E778093E800DF911B
:10144000CF911F910F91089543E050E0BC0182E0DD
:101450000E94E9090895CF93DF93EC0148E050E042
:10146000BC0181E00E94E90988E0FE01A7E6B3E043
:1014700001900D928A95E1F7DF91CF9108959091B7
:101480006D0292FB222720F9281779F080FB92F950
:1014900090936D0260916C0270916D0284E090E017
:1014A0000E94362782E00E940109089510925E0290
:1014B00010925D02EAE0F2E086E0DF011D928A957B
:1014C000E9F780911002853019F080E00E94BF0991
:1014D0000895CF93C09164038091D402C82B80916A
:1014E0005302882381F0C82B20E084ED91E0FC01B9
:1014F0003191CF0131112F5FF1E08A3D9F07B9F79C
:1015000021110E940708C093D20148E050E06BE42B
:1015100072E082ED91E00E94CC26892BA9F088E050
:10152000E2EDF1E0ABE4B2E001900D928A95E1F7D3
:10153000E0915B03F0915C03309731F00280F3811E
:10154000E02D82ED91E00995CF910895E4EDF1E071
:1015500086E0DF011D928A95E9F790E080E00E9425
:10156000F70490E080E00E94D2041092D4020E941E
:10157000690A0895AAE2B0E0E0ECFAE00C94A4262F
:1015800083E793E02091F100FC012193CF01F3E088
:101590008B379F07B9F780917403833009F46EC0CD
:1015A000B8F4813009F445C0823009F4B1C08091AB
:1015B000E80083FF7DC280917303909174039A3099
:1015C00008F076C2E92FF0E0E059F84D0C948F2630
:1015D0008A3009F48CC08B3009F46DC0893039F73A
:1015E00080917303813219F780917703909178038A
:1015F0000297E8F68091E800877F8093E800809169
:10160000E80082FF36C08091F200823031F4809190
:10161000F100813011F0863021F48091F100809347
:1016200066038091E8008B778093E8000E94DF03D7
:10163000BECF80917303813A09F0B9CF8091E80061
:10164000877F8093E8008091770390917803892BBE
:1016500061F468E087E693E070E00E9430048091D6
:10166000E8008B778093E800A2CF60E090E080E014
:10167000F3CF809171038111C2CF99CF8091730311
:10168000813A09F094CF8091770390917803892B68
:1016900009F08DCF8091E800877F8093E8008091EA
:1016A000E80080FFFCCF809141018093F1008091A0
:1016B000E8008E77B9CF80917303813209F077CF3C
:1016C0008091770390917803892B09F070CF8091F6
:1016D000E800877F8093E8000E94DF038091750314
:1016E00080934101109264030E94A60A60CF80910A
:1016F0007303813209F05BCF8091E800877F80938C
:10170000E8000E94DF0380917603809365034FCF4A
:1017100080917303813A09F04ACF8091E800877F76
:101720008093E8008091E80080FFFCCF8091650302
:10173000BCCF803899F0823809F0BAC18091770324
:101740008F70853008F0B4C18093E9008091EB0080
:1017500085FB882780F91092E90006C080916F030D
:1017600090917003911182609091E800977F90931F
:10177000E8008093F1001092F1008091E8008E77EC
:1017800093C1882309F481C1823009F091C180910D
:101790007503811184C1809177038F702FEF280F1B
:1017A000243008F085C18093E9002091EB0020FFF0
:1017B00076C1933031F48091EB0080628093EB002E
:1017C0006EC19091EB0090619093EB0021E030E0CE
:1017D00001C0220F8A95EAF72093EA001092EA00EE
:1017E0008091EB008860EACF811162C1109175038E
:1017F0001F778091E3008078812B8093E3008091B4
:10180000E800877F8093E8000E94DF038091E80072
:1018100080FFFCCF8091E30080688093E30082E04A
:10182000111183E08093710343C18058823008F026
:101830003FC180917503909176038C3D23E0920720
:10184000A1F583E08A838AE289834FB7F894DE01A9
:10185000139620E03EE051E2E32FF0E05093570072
:10186000E49120FF03C0E295EF703F5FEF708E2F91
:1018700090E0EA30C0F0C7968D939D932F5F24319E
:1018800059F74FBF8091E800877F8093E8006AE2B4
:1018900070E0CE0101960E9430048091E8008B77C1
:1018A0008093E80005C1C096E7CF4091770350913F
:1018B0007803292F33272330310509F444C078F504
:1018C0002130310509F46FC08BE390E0E1E5F5E0EC
:1018D0002230310509F0ECC02091E800277F2093E9
:1018E000E8002091790330917A038217930708F476
:1018F0009C0140E02115310509F064C0411162C02E
:101900008091E80082FDC9CF80917103882329F27C
:10191000853019F28091E80083FFF2CFBECF2132EB
:101920003105A9F12232310509F0C2C04115510536
:1019300009F443C04130510509F0BAC082E390E098
:10194000EBEDF4E0C9CF992781309105C1F0009704
:1019500059F0029709F0ACC0EEE9F5E0E4918E2F62
:1019600090E0EEE9F5E007C0EAEBF5E0E4918E2FB8
:1019700090E0EAEBF5E0009709F49AC0ADCFEEEA0B
:10198000F5E0E4918E2F90E0EEEAF5E0F4CF41151A
:10199000510571F04130510509F08AC089E090E0AD
:1019A000ECE7F5E099CF82E190E0ECE8F5E094CF48
:1019B00089E090E0E3E6F5E08FCF84E490E0EDE0AD
:1019C000F5E08ACF80917103882309F466CF8530D2
:1019D00009F463CF8091E80083FD5FCF8091E80038
:1019E00082FD8ECF8091E80080FF84CF8091F2004D
:1019F00090E02115310519F08830910550F041E053
:101A0000089709F040E08091E8008E778093E80025
:101A100071CF44914093F1003196215031090196E4
:101A2000E8CF803809F044C08091E800877F809338
:101A3000E800809172038093F1009FCE811138C03D
:101A4000109175031230A0F58091E800877F809394
:101A5000E800109372030E94DF03112311F084E069
:101A600005C08091E30087FDFACF81E08093710388
:101A700042E061EC81E00E94FE0342E261EC82E020
:101A80000E94FE038091710313C080917503813021
:101A900079F481E0933009F080E080937003109234
:101AA000E9008091E800877F8093E8000E94DF03CF
:101AB0008091E80083FF0AC08091E800877F8093CF
:101AC000E8008091EB0080628093EB00AA96E3E04F
:101AD0000C94C026109264030E94A60A2FEF84E3A0
:101AE0009CE0215080409040E1F700C0000088E178
:101AF0009CE00FB6F894A895809360000FBE909379
:101B00006000FFCF882341F080959091D402892313
:101B10008093D4020E94690A08958091D10288239B
:101B200029F082E20E94820D1092D102089588234A
:101B300039F09091D402982B9093D4020E94690AB4
:101B40000895882321F00E942B080E94690A0895B5
:101B50008091F9010E94A10D1092F9010895882346
:101B600039F090916403982B909364030E94690A62
:101B70000895882309F44DC0823879F40E941C0529
:101B800081FF47C089E30E94B9040E94690A89E382
:101B90000E94AC040E94690A0895833859F40E9497
:101BA0001C0580FF36C083E50E94B9040E94690AC3
:101BB00083E5EECF843859F40E941C0582FF29C0CA
:101BC00087E40E94B9040E94690A87E4E1CF9CEF90
:101BD000980F913AE8F290E2980F983050F487709D
:101BE00091E001C0990F8A95EAF7892F0E942B088E
:101BF000D1CF9BE5980F933028F490E080E00E94CD
:101C0000F7040895885A8B3120F490E080E00E9418
:101C1000D2040895CF93DF93EC010E94B90DCE0159
:101C20000E948E099E01205E31092830310510F096
:101C3000CD2B29F40E94A10DDF91CF9108950E9430
:101C4000820DFACFCF93C82F8823C9F08238C9F408
:101C50000E941C0581FD13C089E30E94B9040E9403
:101C6000690A2FEF87EE93E0215080409040E1F722
:101C700000C0000089E30E94AC040E94690ACF9171
:101C800008958338A1F40E941C0580FDF8CF83E5F8
:101C90000E94B9040E94690A2FEF81EE94E021505E
:101CA00080409040E1F700C0000083E5E4CF843835
:101CB000A1F40E941C0582FDE2CF87E40E94B904D2
:101CC0000E94690A2FEF81EE94E0215080409040FD
:101CD000E1F700C0000087E4CECF8CEF8C0F813A93
:101CE00070F4E4EDF1E08AED91E02191C21799F1F1
:101CF0008E179F07D1F78C2F0E94B904BECF80E2C8
:101D00008C0F883068F4C77021E030E001C0220FEA
:101D1000CA95EAF780916403822B80936403ADCF68
:101D2000EBE5EC0FE33040F4F0E0EA57FE4F808142
:101D300090E00E94F704A3CFC85ACB3108F09FCFA0
:101D4000EC2FF0E0EE0FFF1FE757FE4F80819181EF
:101D50000E94D20494CF8C2F0E94AC040E94690A86
:101D6000CACF1F93CF93DF93182FEB010E94220E4F
:101D7000209739F4812F0E94B90DDF91CF911F91E7
:101D800008958FE99FE00197F1F700C000002197C7
:101D9000EFCF6AE070E0893311F460E570E00E94F3
:101DA000B10E0895B0E0A0E0E8EDFEE00C949F26AF
:101DB0006B01C42FD22FFC0185818823A9F04093A9
:101DC00058030E94A0049093570380935603C77052
:101DD00081E001C0880FCA95EAF70E94AF0DCDB728
:101DE000DEB7E8E00C94BB2610915803141337C0FB
:101DF00080915603909157030E9491047C01C60183
:101E00000E942203E816F90650F5C0E2CD0F1D1717
:101E1000C1F080E2810F883048F4177081E0012E14
:101E200001C0880F0A94EAF70E94A10DC83048F457
:101E300081E09D2F977001C0880F9A95EAF70E9464
:101E4000AF0D802F0E94C90EC83048F6D77081E0D0
:101E500001C0880FDA95EAF70E94A10DC0CFC770C4
:101E600081E001C0880FCA95EAF7F6CFB0E0A0E0A4
:101E7000ECE3FFE00C949E26E82FF0E0E55AFB4FE0
:101E8000B490282F26952695269530E0F901E55B3C
:101E9000FB4F0491877010E0082E02C0159507953E
:101EA0000A94E2F701701127F901E55CFB4FE49019
:101EB000F12C082E02C0F594E7940A94E2F791E021
:101EC000E922FF24F901E55DFB4FC491D0E002C097
:101ED000D595C7958A95E2F7C170DD27C62ED12C1E
:101EE0000115110549F5E114F10431F086EE0E9467
:101EF000220EC601009771F5B6018B2D0E94B10E1E
:101F0000C601009779F5E114F104A1F50115110559
:101F100031F081EE0E94B90DC6010097C9F5CD2BB5
:101F200031F08CE20E94C90EC114D104C9F5CDB7BD
:101F3000DEB7E9E00C94BA2681EE0E94220EC601BB
:101F4000009789F2EFE9FFE03197F1F700C0000058
:101F50000197F6CFEFE9FFE03197F1F700C00000FD
:101F60000197C8CFEFE9FFE03197F1F700C000001B
:101F70000197C7CF86EE0E94B90DC601009731F2D6
:101F8000EFE9FFE03197F1F700C000000197F6CFCD
:101F9000EFE9FFE03197F1F700C000000197BDCFF6
:101FA0008FE99FE00197F1F700C0000091E0C91AA6
:101FB000D108BACF0F931F93CF93DF938C01F80111
:101FC0008491882309F44BC0813009F043C0E801B3
:101FD0002196FE018491813049F42196FE0184917D
:101FE0000E94C90E8E010F5F1F4FE9CF823039F476
:101FF000E8012296FE0184910E94220EF3CF8330E5
:1020000039F4E8012296FE0184910E94B90DEACFCD
:10201000843041F7E8012296FE01249190E080E0AF
:10202000FE0131962053330B2A30310550F00097D2
:10203000C9F2EFE9FFE03197F1F700C00000019726
:10204000F6CF6AE070E00E947E26820F931F2491F3
:10205000EF01E6CF60E00E94360FE801C3CFDF91C9
:10206000CF911F910F910895CF93DF93EC010E94C0
:102070008E099E01205E31092830310510F020972D
:1020800041F40E94AF0D8C2F0E94220EDF91CF9160
:1020900008950E94970DF7CF0F931F93CF93DF936F
:1020A0008C01EB010E9434108FE99FE00197F1F75A
:1020B00000C000002197C1F7C8010E940A0EDF91FD
:1020C000CF911F910F91089584E090E00E945705F1
:1020D000882329F08BED90E00E94DA0F089585E0C7
:1020E00090E00E945705882359F081ED90E00E940E
:1020F000DA0F80E50E94C90E80E50E94C90E08959E
:1021000086E090E00E945705882319F08BEC90E060
:10211000E3CF87E090E00E945705882319F085EC13
:1021200090E0DACF8BE090E00E945705882319F009
:102130008EEA90E0D1CF8FE090E00E94570588238F
:1021400011F089E3DACF83E190E00E9457058823FC
:1021500019F088EA90E0C0CF84E190E00E94570532
:10216000882339F06AE070E082E49EE70E944C1018
:10217000089586E190E00E945705882319F082EACD
:1021800090E0AACF87E190E00E945705882329F0CC
:102190006AE070E083E49EE7E9CF8AE190E00E9484
:1021A0005705882329F06AE070E084E49EE7DECFDB
:1021B0008DE290E00E945705882309F48FCF8EE9C5
:1021C00090E08ACFCF93FC019681907FC1E039F4F3
:1021D000C581CB01CC2331F00E943410C0E08C2F9C
:1021E000CF9108950E940A0EFACFB0E0A0E0EBEF85
:1021F000F0E10C9497267C01DC0114968C918823E5
:1022000009F45CC061E0C7010E945E09EC01909195
:10221000F80191110C94E51AF70185818823B9F032
:10222000C115F0E5DF0708F086C0C11520E2D2072E
:1022300008F099C0C11537E0D30749F008F043C052
:102240009E01205E31092830310508F041C0C937B0
:10225000ECE7DE0709F08DC02091EC013091ED0133
:10226000232BE1F0811152C086E0F701ABEDB1E024
:1022700001900D928A95E1F78091DA018093F8013F
:102280008BED91E00E94F5101092F801F701858125
:10229000811104C08091E4010E94820D80914A0264
:1022A000877061F0D70115968C91882339F0809161
:1022B0006D0282FF03C082E00E940109CDB7DEB744
:1022C000E0E10C94B326C115AFE0DA0709F4BFCF03
:1022D000409164038091D4023091530229E0F701C8
:1022E000A5EEB1E001900D922A95E1F7D093ED01B2
:1022F000C093EC0110925503842B832B8093E4014F
:10230000C937BCE7DB0711F00C94DF1A81E00E94AB
:102310003F058091E4010E94970D89E0E5EEF1E030
:10232000ABEDB1E001900D928A95E1F780915503F4
:102330008093DA0199CFC03EB2E5DB0760F4C03686
:10234000E2E5DE0708F083CF9E01325520343105E7
:1023500008F0BECF7CCF9E0129573C472230310583
:1023600008F0B6CF74CFD70116962C91207F09F0D4
:10237000AFCFCA37FCE7DF0711F00C94E51A8823CA
:1023800009F442C04091EC015091ED018091E401CB
:10239000282F22724A30510511F14D30510509F4B0
:1023A00058C0282F207F09F090E1C82FC295CF7028
:1023B000C82BCF70C92B411520E4520708F050C03C
:1023C000411530E2530708F050C0411581E058072D
:1023D00008F064C04F3F510509F048F447C081EF51
:1023E00090E0211102C08BEE90E00E94DA0F90E0A5
:1023F00080E027E0EFEEF1E0DF011D922A95E9F79A
:102400009093F7018093F6018091F6019091F70186
:10241000892B09F443CFF7018581882339F08FEFA9
:102420000E943F05809155038093EE0186E0F701FD
:10243000AFEEB1E001900D928A95E1F78091EE0147
:102440008093F8018FEE91E00E94F5101092F80150
:1024500025CF86EE90E02111C8CF81EE90E0C5CF68
:10246000411590E5590708F0B5CF5527D42F8C2F8B
:102470008D70B1F06AE085E191E00E94290590E05D
:10248000009751F44D2F66E187EF90E00E942905F7
:1024900090E0009709F4ABCF9C2BABCFC52BE5CFD9
:1024A00068E08DE091E0E9CF409103025091040291
:1024B000C417D50731F5958191110C946A1A8330B0
:1024C00099F41092FF0184E0809304018AEF91E077
:1024D0000E94F51081E08093040110920402109292
:1024E000030210920502DACE80910502811103C029
:1024F0000E945D21E6CF2115304260F70E94A80DB1
:10250000E9CF81110C946E1A8581882311F40C9403
:102510006E1A8091590290915A02009769F028E34F
:102520003FEF281B390BF70182819381280F391F58
:1025300081E02F3F3F4708F480E0282F2170B22E22
:1025400080FD37C00130A9F4112329F0D701169678
:102550008C91807F71F091E0F7018181843008F0E7
:1025600090E081E02091FB01243008F080E0981792
:1025700001F10E945D218091F801882379F080911A
:1025800003029091040290548115904138F4D701D0
:1025900018961C921E9217971092D402C0910401B3
:1025A00084E080930401C7010E94F510C0930401E8
:1025B00075CE0E94A80D809100028E70816180937B
:1025C0000002A4E0CA2EC09204018AEF91E00E94AA
:1025D000F510B2E0DB2ED09204010E94690AEFE30D
:1025E000FCE93197F1F700C000001092FF01C092A2
:1025F00004018AEF91E00E94F510D0920401B70126
:102600006E5F7F4FCE010E94C209BB2039F20130BC
:1026100029F6112319F2D70116968C91807F09F0C3
:10262000BDCF6CEF71E080910302909104020E9493
:10263000C209D0930402C093030289E0F701AAEF14
:10264000B1E001900D928A95E1F7F70182819381C3
:1026500088519C4F90935C0280935B02109204011E
:1026600040CF8B2D8D7D8093D40282E20E94210881
:1026700082E20E94A10D80910602909107020E94C1
:102680003410D09264030ACE0F5F1F4F349601318D
:10269000110509F069C7B090100225E0B21681F16A
:1026A000882071F1D70112968D919C9188579C4E8C
:1026B000816090935E0280935D02C115B0E5DB07F7
:1026C00088F4C115E0E4DE0708F057C0C03ED1052C
:1026D00038F0C83ED105A0F0C115F0E2DF0740F5A3
:1026E0008E012DC0C11522E5D207D0F3C03432E5EA
:1026F000D30730F0CE01805692458038910580F79F
:1027000091E1991206C10E940D08C337FCE7DF076B
:1027100009F044C2D70115968C91882309F4BECDE7
:102720008091D102882309F436C20E948D0DB6CD66
:10273000D70116968C91807F19F38E0111270A32EA
:102740001105F1F480910F020E94BF0945E050E0AD
:102750006AE072E08BE092E00E94DB2610920A02AF
:102760004EE050E065EC73E087EC93E00E94DB26DE
:102770001092C6031092C503C3CFF7018681DBCF49
:10278000909153028091D4028929892B282F2D7989
:1027900019F582720733110568F50533110508F044
:1027A00050C00832110570F40F31110508F049C00E
:1027B0000430110588F00E31110508F47EC0811136
:1027C00029C03FC00433110508F0A1C00D32110526
:1027D000C0F50C321105B9F10E94560A1092090297
:1027E00010920802E5ECF3E080E1DF011D928A958A
:1027F000E9F786CF0832F2E01F07A0F40F3122E09C
:102800001207F8F408331105D1F2C8F00E3132E0A6
:10281000130711F731E073E0D72EB316E9F062E049
:10282000D62E1AC00D3242E01407B0F2043382E013
:10283000180738F0083392E0190761F3CDCF8823E9
:1028400049F3D12C09C0B4E0BB1259C0109209025F
:1028500010920802E4E0DE2EE5ECF3E083ED93E075
:1028600022813381219331938E179F07C9F780917D
:102870000B0280930A0280910C0280930B028091DC
:102880000D0280930C0280910E0280930D028091C4
:102890000F0280930E021093D4030093D30383E0BE
:1028A000D81205C00E944D03811101C0D12CB092F5
:1028B0000F028D2D0E94BF0923CFE2E0BE16E0F08B
:1028C000F3E0FB1508F0ABCF24E0B21215C0209165
:1028D0000802309109020217130709F4B2CF1093CE
:1028E00009020093080280916D0282FF05C09230B8
:1028F00019F082E080935302DD24D394ADCF43E0FE
:10290000B4129FCF0E944D038111A0CF9ACFDB2C30
:10291000A3CFC332A0E4DA0709F431C1B0F5CF3157
:10292000E0E4DE0709F428C108F5CE3020E4D20740
:1029300009F4D7C0CE3130E4D30709F41AC1CE3040
:10294000D10509F0E2CEF7018581882309F4A6CCF0
:102950008C2D8A29827209F41BC182E20E9421080F
:1029600082E20E94A10D82E291E0CCC06DE370E0B2
:10297000C13240E4D407F1F06CE370E0C23280E48D
:10298000D807C0F06EE370E015C0C0349EE7D907E9
:1029900009F49CC008F07BC0C532B0E4DB0709F441
:1029A000F4C008F4EFC062E470E0C632F0E4DF0780
:1029B00009F0ABCEC7010E94E210882309F46ECC67
:1029C000C13ED10509F40DC1C53ED10509F406C1CA
:1029D0008091D102811135C1F7018581882351F1A0
:1029E000C13ED10529F0C23AF2E5DF0709F026C160
:1029F00080911602882379F0D70112968D919C91CF
:102A00002091140230911502821B930B8F3F9F4738
:102A100010F00E940D0881E080931602CE010E9402
:102A20002203F70122813381820F931F90931502B5
:102A300080931402F7018581882309F4A7C180914E
:102A40008102882309F42EC580917F029091800233
:102A50000E9491048938934108F098C1CE019052A8
:102A60008115904208F086C19E013327809117029C
:102A7000853008F087C1E82FF0E0EE0FFF1FE55B1F
:102A8000FC4F318320838F5F8093170207CCC334C0
:102A90002EE7D20709F452C0C4343EE7D30709F445
:102AA0005AC0C2344EE7D40709F02FCED70115968D
:102AB0008C91882309F4F2CB61E083E090E00E94DE
:102AC000182781E090E00E942809E8CBD7011596ED
:102AD0008C918823D9F00E94A004909312028093D5
:102AE0001102F7018581882309F4D8CB8C2D8A291E
:102AF0008272F9F082E20E94210882E20E94A10D16
:102B000088E291E00E94DA0F8A2DC6C580911102F9
:102B1000909112020E9491046AE070E0843C910559
:102B200028F086E091E00E944C10DBCF89E191E033
:102B3000FACF85E291E00E94DA0FB0CBF7018581F0
:102B4000882309F4ABCB64E083E090E00E9418276F
:102B500084E090E0B8CFD70115968C91882309F4D2
:102B60009DCB62E083E090E00E94182782E090E035
:102B7000AACF6AE370E01ECF6BE370E01BCF6FE378
:102B800070E018CF60E470E015CF61E470E012CF20
:102B90008FE191E0D0CF0E940D0880CBC23AB2E520
:102BA000DB07F9F0B0F4CE0190528115904208F0A5
:102BB00007CFD70116968C91807F09F001CF8D2F1A
:102BC00099278F7199278230910559F0429731F0FA
:102BD000F7CEC23B22E5D20709F0F2CE25EE30E077
:102BE00002C021EE30E02770332781E090E001C081
:102BF000880F2A95EAF7209113023091D1023323EE
:102C000059F0F7013581332321F0822B8093130291
:102C100045CB80958223FACF322F382309F4DCCEBE
:102C2000982F90952923209313020E942B08D701F7
:102C300015968C91882309F431CBCECE10921602D2
:102C4000F9CE00916403109153020E94A0048857AA
:102C50009C4E9093D0028093CF02D70115968C9111
:102C6000882309F4E7CE102B1D7909F05FC0C0342A
:102C7000B2E5DB0780F5C115E2E5DE0708F0DACE44
:102C8000C115F0E4DF0758F4C11520E2D20708F0BF
:102C900040C0C63ED10509F4CDCECE010CC0C11551
:102CA00030E5D307D0F7D70116968C91807F09F4D1
:102CB000C1CECE0199271092D4028832910508F036
:102CC0003FC08E31910508F041C0049778F182E051
:102CD0008093D4023BC0C03E42E5D407A0F4C03C80
:102CE00082E5D80708F0A6CEC03692E5D907A8F24B
:102CF000C03AA2E5DA0708F49DCEC43BB2E5DB0793
:102D000009F498CECACFCE0187579C47029728F680
:102D100091CEF7018681807F61F68D2F8F7184318E
:102D200009F488CE863111F41092D4020E948D0DE0
:102D30008091640390911302892B809364037ACE6F
:102D40008D32910521F278F48A9781F780911302F0
:102D5000882331F08091D40292E089278093D402B5
:102D60000E94690A67CE8C34910581F38D329240BE
:102D700069F3DCCFCE0190548115904108F474CEF4
:102D80009E0174CE109281020E946410F701858129
:102D9000882309F4A5C4C137FCE7DF0709F4A9C0FB
:102DA000C2372CE7D20709F4AEC0C0373CE7D307DF
:102DB00009F0A1C48090020190900301809100016C
:102DC000909101018816990621F580911E028032AA
:102DD00001F5E8E1F2E0EF0181918032E1F38881D1
:102DE000882309F45BCA813009F07FC08981813072
:102DF00009F046C08E010E5F1F4F8A810E94C90EE6
:102E0000E801EFE3FCE93197F1F700C000002196FB
:102E1000E6CF909201018092000180E280931E0231
:102E2000B12CA12C10921D0228E1C22E22E0D22E3C
:102E300003E112E0E6013AE0432E512C612C712CA3
:102E4000C501B401A30192010E944C27605D60336B
:102E500019F4CC16DD0631F081149104A104B104FB
:102E600009F460E26C83C501B401A30192010E94E0
:102E70004C2749015A0121970C171D0709F7A9CFC3
:102E8000823039F48E010E5F1F4F8A810E94220E1C
:102E9000B7CF833039F48E010E5F1F4F8A810E94B5
:102EA000B90DAECF843011F02196ABCF2A81229696
:102EB00090E080E0FE0131962053330B2A3031053B
:102EC00058F0009709F49DCFAFE9BFE01197F1F7F3
:102ED00000C000000197F5CF6AE070E00E947E26F6
:102EE000820F931F2981EF01E5CF6AE00E94360F20
:102EF0008ECF80910201909103010596909303017A
:102F000080930201CBC98091020190910301059742
:102F1000F5CF06E221EE41EE6AE17CE7C7010E94AF
:102F2000D20EBCC907E225EE45EE6BE17CE7F6CF99
:102F300006E221EE40EE68E17CE7F0CF07E225EE05
:102F400044EE69E17CE7EACF06E221EE42EE6CE175
:102F50007CE7E4CF07E225EE46EE6DE17CE7DECFCD
:102F600008E221E045EE6EE17CE7D8CF85E3DAC3E5
:102F700085E322C3109264030E94A60A2FEF34E374
:102F80004CE0215030404040E1F700C0000081E0BB
:102F90008093E00080E28093D8001092C9008FE116
:102FA0009EE40197F1F700C0000087E090EBDC01A0
:102FB0008093D5039093D603A093D703B093D803FF
:102FC00088E19CE00FB6F894A895809360000FBE4E
:102FD00090936000FFCF6FEF7FEF90E080E00E9462
:102FE00036270E946A0D80916D0282FB882780F946
:102FF00091E089270E943F0AF70187819085009719
:1030000009F43FC00E94E306D82FC92FF7010581BC
:10301000D680D2949FE0D92280914A02877001F134
:10302000C02E0023F1F08C2F807F803461F080E28D
:103030008D0F8830A8F08C2F807E803221F4D23022
:1030400078F0DD2069F080916D0282FF09C082E096
:103050000E94010980914A028770CC24C394811197
:10306000C12CBC2EB2948FE0B822FBE0FB1508F413
:103070007BC0EB2DF0E0E658F84D0C948F2680E0F5
:10308000B9CF8581C081D181882369F0CE010E94AA
:103090003C08182F682FCE010E94B208BE01812F74
:1030A0000E94C106AFCFCE010E947D08182FF6CF37
:1030B0001C2F1F70C07F11F01295107F0023B9F0F4
:1030C000112369F080E28D0F883010F0D11109C012
:1030D00080916403182B109364030E94690A8D2F5A
:1030E00041C08091D402182B1093D402F6CF8D2FBB
:1030F0000E94B90D1123C1F180E28D0F883010F0CC
:10310000D11104C0812F0E942B0806C01095809118
:10311000D40218231093D4020E94690A25C01C2FE0
:103120001F70C07FC03211F01295107FDD2351F067
:10313000D13009F46DC0002309F479C0DD2009F411
:1031400043C0CDCF80916D0282FD3AC0002391F142
:10315000112339F080916403182B109364030E94AB
:10316000690A80E00E94220EEB2DE850FF0B349795
:1031700020F40E941C050E945709CC20B1F08091D8
:103180004A0280FD12C0D70115961C92869586953D
:1031900086950E941809C7010E94F51080914A0285
:1031A0008695869586950E94EF0860E0C7010E948B
:1031B0005E0984C880E00E94B90D1123A9F2A2CF54
:1031C000002399F0D11004C0812F0E94AF0DCCCF05
:1031D00021E0D212C9CF80915302912F9823191761
:1031E00019F2182B10935302BFCFD110BDCF812FEE
:1031F0000E94A10D812F0E94210880912002912F11
:10320000982309F4B1CF1095182310932002ACCF66
:10321000002329F035E03D1508F4A6CFD5CF44E0D2
:103220004D1508F4A1CF812F0E94A10D9DCFDD2067
:10323000D1F3D93369F48FEF97EEA3E0815090403A
:10324000A040E1F700C000008D2F0E94B90D8CCF87
:10325000EFE3FCE93197F1F7F5CF8C2F8695869552
:10326000837069F0813009F07FCF8D2F9C2F937090
:10327000011102C080E090E00E94D20475CF8D2F32
:103280009C2F9370011102C080E090E00E94F7042F
:103290006BCF8C2F837009F03FC0011165CF4D2F8C
:1032A000429546954770440F440F2D2F2F7030E004
:1032B000042E02C0220F331F0A94E2F790E080E050
:1032C000D4FF09C08FE090E002C0880F991F4A9593
:1032D000E2F780959095C695C695C370C23099F077
:1032E00078F44091680250916902C13039F0822B24
:1032F000932B842395230E94280936CF242B352B2A
:10330000822B932BF8CF822B932B20916802309144
:10331000690282279327EFCF8695002311F08C2F27
:103320008170882309F420CF4D2F42954695477030
:10333000440F440F2D2F2F7030E0042E02C0220FB7
:10334000331F0A94E2F790E080E0D4FF09C08FE0D9
:1033500090E002C0880F991F4A95E2F780959095FA
:10336000C695C695C370C23099F078F440916A0250
:1033700050916B02C13039F0822B932B842395231B
:103380000E94EA08F1CE242B352B822B932BF8CF09
:10339000822B932B20916A0230916B028227932714
:1033A000EFCFCF70002329F08C2F0E9418098D2FAA
:1033B0000CCF8D2F0E94A10D8C2F0E94EF08D4CE30
:1033C000D23F71F160F4D03FB9F0D13F81F00023DA
:1033D00009F454C0D11083CE8C2F8F7125C0D33FF8
:1033E00031F1D43FA1F790916D0292FD2EC08C2F48
:1033F0008F71002311F318C0002369F0F4E0FD156C
:1034000008F4B2CECF7181E090E002C0880F991F1E
:10341000CA95E2F7BFCF25E02D1508F4A5CEF2CF6F
:103420008C2F8F710111C9CF0E9418099DCE90E099
:1034300080E0002309F4A4CFCF7181E090E002C0C6
:10344000880F991FCA95E2F79BCF002361F08C2F5C
:103450008F7192FFE9CF982F990F990F990F936071
:1034600090934A02E1CF81E00E94010931E03D15CD
:1034700008F07ACE82E00E94010976CEDD2079F054
:10348000D93341F44FEF87EE93E0415080409040B4
:10349000E1F7D8CEAFE3BCE91197F1F7D3CE8C2F8B
:1034A0008F718BCFC835BCE7DB0709F06FCC81E0AB
:1034B000809381020E94A0049093800280937F02F7
:1034C00010921702EBE4F3E08AE0DF011D928A9587
:1034D000E9F75CCC882311F40C948912B7016E5F74
:1034E0007F4FCE010E94C20980910602909107028F
:1034F000009731F00E940A0E109207021092060205
:10350000D70115968C90159790906403882009F444
:10351000C2C8B090D402DB2CD92880915302D82A9B
:103520008D2D827209F4B7C80D2D10E00D7D0115A7
:10353000110509F0B0C88D919C910E947D082CE185
:1035400030E002C0359527958A95E2F720FFA3C8A1
:10355000CE0190528115904328F4F7018681807F37
:1035600009F499C8E2E4F1E080819181C817D90794
:1035700009F08AC8000F111F000F111FF801EE5B40
:10358000FE4F8281938190930702809306029C01F3
:103590003A9521153F4108F064C891FF62C80E9426
:1035A00034100C944E11C631DC4709F025CD8091C2
:1035B0001F028111DDCC89E20E94AC04B5C0CA377C
:1035C0002CE7D20711F40C94C211A0906403C090B0
:1035D000530280910401843009F486CF9091050252
:1035E000911112C0D70115969C91992369F02091F1
:1035F0000302309104022115310531F0C217D307BF
:1036000019F091E0909305029E01305211E02115CE
:10361000B0E33B0708F010E01170F701048181303E
:1036200011F00C945412112309F458CF8681807F35
:1036300009F054CF8581882309F450CF013009F077
:103640004DCF10920401D0930402C093030289E08D
:10365000AAEFB1E001900D928A95E1F7D701129699
:103660008D919C9188519C4F90935C0280935B025A
:103670002115304210F00C944E118D2F8F710E9445
:10368000D005982F9C7011F00C944E1184FF02C04D
:103690008295807F8093F9010E94AF0D0C944E11AA
:1036A000C3303CE7D30709F496CC50F4C1158CE73E
:1036B000D80709F45FCCC130DC4709F492CC9CCC2C
:1036C000CB35ACE7DA0709F4DACCCC35BCE7DB075D
:1036D00009F489CCCA35DC4709F08ECC81E08ACC6C
:1036E000FE01E851FC47E730F10508F05CCFEA57EE
:1036F000F84D0C948F26FE01E851FC47E730F105A8
:10370000B0F310925803C631FCE7DF0749F6809109
:1037100064038A7A91E009F490E090931F0281118A
:1037200025CC89E20E94B9040E94690A0C944E11CA
:103730000F931F93CF93DF9380914702807F31F4E3
:1037400080914602C091C403811107C0DF91CF91DF
:103750001F910F9108952196C77080917B038C175C
:10376000A9F3D0E0CE0169E070E00E947E26845883
:103770009C4FFC018481882371F3CE0169E070E0E5
:103780000E947E26FC01E458FC4F91818091420208
:103790009813E1CF9081809141029813DCCF85810D
:1037A0008111D9CF0281138180914302909144020B
:1037B000081B190B60E081E492E00E945E090E9400
:1037C00022030817190738F6809147028F7080612D
:1037D00080934702CE0169E070E00E947E26FC01E2
:1037E000EE57FC4F90819F709061908381E492E04E
:1037F0000E94F5100E943208A9CFA8E1B0E0E3E0F2
:10380000FCE10C9498268C0186E0F801DE015396C9
:1038100001900D928A95E1F7D80114967C90149747
:103820001596EC9081E4A82E82E0B82E8091450296
:1038300081112AC0711003C0FF24F3941CC0EE2034
:10384000F9F0C8010E942D09F82E8823C9F089E0FB
:10385000F801A1E4B2E001900D928A95E1F7809120
:103860004502813031F480914102909142020E94E0
:1038700070080E94981B8F2D6896EFE00C94B42678
:10388000C8010E94F510D8CFF801C280D380F09013
:10389000460280914302909144024601881A990A97
:1038A000FF2009F423C15080618060E081E492E050
:1038B0000E945E090E9422038816990608F0C9C07A
:1038C000772009F4B9CF80914702382F307F2091BB
:1038D0004202D80111969C911197311169C02913A8
:1038E0001FC0209141029C9129131AC040914802A7
:1038F0005091490217962D913C914217530781F43C
:10390000E11050C08F7080618093470281E492E0A3
:103910000E94F51080914702F8018683F12CABCF0D
:10392000E11040C0662D852D0E948E03E82E88236D
:1039300061F081E492E00E94F51089E0E1E4F2E0B8
:10394000DF011D928A95E9F7E9CF5B8A6C8A8B8942
:103950009C890E947008292F22952F70243058F4DA
:103960009F70223088F0992399F0F8019681907F1A
:1039700079F4FE2C80CF2A5F2F70223068F0C801C6
:103980000E94F510EF2CF5CF992311F0882389F3CD
:10399000805E883070F3F3CF803F58F3815F8330CF
:1039A00070F7E7CF80914702816080934702B6CFDE
:1039B000291320C0209141029C9129131BC04091E2
:1039C00048025091490217962D913C911897421741
:1039D000530781F4E1100EC016968C93C8010E9423
:1039E000F51089E0F801A1E4B2E001900D928A950A
:1039F000E1F741CFC8010E942D09882309F440CF87
:103A0000EE2009F43DCF809147028032B8F020913A
:103A10004102309142023B872A87DD86CC86909115
:103A200045029E871F86888B8091480290914902AB
:103A30009A8B898BCE010A960E94F51089E0F801D5
:103A4000A1E4B2E001900D928A95E1F70E94981BE3
:103A5000F3CE80914702982F907F09F46ACF7720A8
:103A600009F4EACE20914202F801918129131AC08B
:103A7000209141029081291315C040914802509134
:103A80004902278130854217530761F4E1100AC0CB
:103A90008683C8010E94F51089E0D5011D928A95A0
:103AA000E9F7E9CEC8010E942D09882309F4E8CE80
:103AB000EE2009F4E5CE80914702803208F4BECFB3
:103AC00020914102309142023A832983DC82CB82E9
:103AD000909145029D831E828F8380914802909130
:103AE000490299878887CE010196A6CF60E081E4DC
:103AF00092E00E945E090E9422038816990608F04F
:103B00004AC0772009F498CEFE2CEE2009F4B8CEF6
:103B100090914202F801818198132FC09091410247
:103B2000808198132AC020914802309149028781F0
:103B300090852817390709F5809143029091440236
:103B4000C81AD90AF3ECCF16D10408F04ACF9091E5
:103B5000470290FD46CF907F09F443CF8091470202
:103B6000D80116968C931697903F09F437CF982F6B
:103B7000907F905F8F70892B2FCFC8010E942D09F5
:103B800081115CCF80914702816080934702C80118
:103B90000E94F51070CE89E0F50111928A95E9F73F
:103BA0006ACEA2E1B0E0E7EDFDE10C94A3260A871E
:103BB0001B872C873D874E875F87688B798B8A8B25
:103BC000CE010A960E94FD1B81112BC089E0FE01E7
:103BD0003A96DE01119601900D928A95E1F78E8555
:103BE0008823F9F080917B0390E09C012F5F3F4F89
:103BF000277033274091C40342171306E1F069E0B0
:103C000070E00E947E26DC01A458BC4F99E0FE01C2
:103C1000319601900D929A95E1F720937B030E94D3
:103C200032088091C40390917B03891314C062967B
:103C3000E4E00C94BF26109264030E94A60A10923E
:103C40007B031092C40389E0E1E4F2E0DF011D92FE
:103C50008A95E9F7E6CF90E069E070E00E947E2661
:103C600084589C4F0E94FD1B882309F38091C40354
:103C700090E00196877099278093C403D2CFB0E07B
:103C8000A0E0E5E4FEE10C949F268091D602882313
:103C900059F0E090D502D12C8091D602E81648F078
:103CA0001092D6021092D502CDB7DEB7E8E00C94A0
:103CB000BB26CC24C394CE0CC092D502F12CC701F4
:103CC0006DE070E00E947E26EC01C952DD4F8C81D0
:103CD000882369F18F819885892B21F489859A85BC
:103CE000019659F4088119812A813B814C815D81BB
:103CF0006E817F8188850E94D11DC7016DE070E0D3
:103D00000E947E2689529D4FFC0114821092D4029B
:103D1000D1100DC0CE010E942D09811108C08FE382
:103D20009CE90197F1F700C00000DD24D394EC2C4E
:103D3000B3CF10924A031092490310924001809130
:103D40004803809347030E94A5050E943F1E0895E3
:103D5000B0E0A0E0EEEAFEE10C949826C0914703A3
:103D6000EE24E394F12C74E0672E992493948091CF
:103D700048038C1309C00E943F1E0E94A505CDB7C1
:103D8000DEB7EFE00C94B426D0E0FE01EE0FFF1F8B
:103D9000E15CFC4F20813181C90167E070E00E9445
:103DA0007E26815F9E4FFC018481811160C07090EE
:103DB000D60207ED12E0B0E0A0E0812CA71508F0D4
:103DC00053C0F801A384B484C90167E070E00E9485
:103DD0007E26815F9E4FFC01C080D1808FEF9FEFD8
:103DE000512C652D70E0FB01EE0FFF1FEC0DFD1D4A
:103DF00045915491A416B50609F4CB01452B11F059
:103E00005394EFCF8F3F9807B9F1A70102C0440F39
:103E1000551F8A95E2F7842AC701052C02C0880F36
:103E2000991F0A94E2F701978816190619F5CD0132
:103E30006DE070E00E947E26FC01E952FD4FC90151
:103E400067E070E00E947E26DC01A15FBE4F129603
:103E50008D919C9113979087878364821082118241
:103E60003287218715969C92C9010E947A05219676
:103E7000C3707DCFF80114821196035F1F4F9ECF50
:103E8000AEE1B0E0E6E4FFE10C9495264B8B5C8B51
:103E90006D8B7E8B8F8B988F91111092D402188A24
:103EA000198A1A8A86E0FE017396DE011A9601903D
:103EB0000D928A95E1F78E85882379F061E0CE0135
:103EC0000A960E945E0980352CE7920791F48F854F
:103ED000882321F181E0809340010A851B852C8590
:103EE0003D854E855F85688979898A890E94D11DC3
:103EF000CFC081354CE7940731F48F85882371F06A
:103F00000E94991EEACF82359C4741F48F85882311
:103F100029F0809140018111F3CFDCCF6A857B8548
:103F200080E00E94C1064C011FE0E12E11E0F12E5D
:103F3000512CD12CC12CAA24A394B12CBE016F5FAB
:103F40007F4F7A8F698F94E0292E44244394F701A0
:103F50004081518166246A94762C60E0262F30E0FF
:103F6000F901EE0FFF1FE40FF51F8591949188165C
:103F7000990609F43901892B11F06F5FEFCF10E03A
:103F8000FFEF6F167F0609F443C0F70144811091DB
:103F90004001812F411180E0182F1170F701358009
:103FA00086819F85992309F4F2C0112309F4EFC09B
:103FB000311014C09501062C01C0220F0A94EAF7B3
:103FC000822B86838091D2029091D302CC9730F4D9
:103FD0004CE350E05093D3024093D202C50102C09B
:103FE000880F991F6A95E2F70197F7012681281734
:103FF000190671F48091490390914A03009709F4DE
:104000004BC00E949104CD9708F446C0F70144824A
:10401000512AFFEFCF1ADF0A27E0E20EF11C47E03A
:10402000C416D10409F093CF8F85882309F40DC1FC
:10403000552009F40AC10E94A00490934A0380937A
:1040400049038091D602883018F591E0980F90933B
:10405000D60299E0FE013A96DE01119601900D928A
:104060009A95E1F790E06DE070E00E947E2689521B
:104070009D4F29E0FE013196DC0101900D922A95B9
:10408000E1F72FEF3FEFFC0132872187948683868B
:104090006E96E2E10C94B12620914703A09148036B
:1040A000322FF0E0E0E02A1315C030934703EE16FC
:1040B000FF0609F4ADCF30E0F901EE0FFF1FE15C20
:1040C000FC4FD182C0822F5F3F4F23703327209354
:1040D00048039ECF622E712CF301EE0FFF1FE15CAF
:1040E000FC4F8081918167E070E00E947E26815FB5
:1040F0009E4FFC010190F081E02DFE8FED8F312C61
:10410000B0E000E0E02FF0E0EE0FFF1F4D8D5E8D80
:10411000E40FF51F4591549141155105E1F0F70168
:104120000190F081E02DFC8FEB8FB0E005C04617C9
:10413000570709F4312EBF5FEB2FF0E0EE0FFF1FA2
:104140006B8D7C8DE60FF71F65917491611571057C
:1041500071F70F5FD7CF3320B9F0F701B01708F030
:10416000FC014482EE16FF0619F4309347032FC07A
:10417000231305C08E179F0711F43F5F3370C301EF
:104180000196282F23708FCFF0E0E0E0F8CF90E089
:1041900031101FC0950102C0220F331F6A95E2F74C
:1041A000215031092817390731F4442309F44BC051
:1041B000C6010E947A05C501062C01C0880F0A9429
:1041C000EAF7982F9095F701868189238683132D2E
:1041D0001FCFAC01062C02C0559547950A94E2F713
:1041E000BA01617077279C01215031098223932302
:1041F000892B29F5672B19F1F70182819381892B8E
:10420000D9F0E98DFA8D27E011922A95E9F70E94FD
:10421000A004282F8B839C832D82F70182819381B8
:10422000782F8887998709811A813C8144E05E81D3
:104230006F81892F0E94D11DF7011582BCCFF42F09
:10424000F1703F2EB8CF312EB6CF909147038091B9
:104250004803981729F00E94A81E511019CF3DCE8F
:104260000E943F1E10924A03109249030E94A50526
:10427000F4CFA6E0B0E0EFE3F1E20C94A3260E94B5
:10428000A0048C01809154029091550280179107EF
:1042900081F019821A820E94A004682F49815A81F4
:1042A000792F80E090E00E94401F10935502009308
:1042B00054022696E4E00C94BF260E94A80D84E0E8
:1042C000809304018AEF91E00E94F51083E08093CF
:1042D00004010895A8E0B0E0E0E7F1E20C949A262A
:1042E0008E010F5F1F4F88E0F80111928A95E9F760
:1042F0008FEBC82E81E0D82EF12CE12CAA24A394B8
:10430000B12C2FEC822E21E0922EF60181916F01CB
:104310008F3F09F442C0F894E82FE295EF70F0E087
:1043200021A18F70A50102C0440F551F8A95E2F7A5
:10433000CA01922F982B91A392A18095892382A3E1
:10434000789400C0E7ECF1E0712C31E021912F3F2F
:1043500009F481C0A22FA295AF70B0E090968C9125
:1043600090E02F7002C0959587952A95E2F780FD21
:1043700072C0832F782A330F8E169F0639F7F60105
:10438000319780818F3F11F00E94B90550EA5A950C
:10439000F1F7F801EE0DFF1D70828FEFE81AF80AB1
:1043A000E8E0EE16F10409F0B0CF48E050E0B801C3
:1043B00080E692E00E94CC26892B09F450C088E068
:1043C000F801A0E6B2E001900D928A95E1F781E054
:1043D000809358020E94A004909357028093560243
:1043E00010E08091040181110DC00E94A004209171
:1043F0005B0230915C02821B930B8F3F9F4710F44E
:104400000E945D21E0905902F0905A02E114F104FB
:1044100069F00E94A0048E199F09805293408F3F3B
:104420009F4720F410925A0210925902E0905D02C8
:10443000F0905E02E114F10449F00E94A0048E198C
:104440009F098F3F9F4710F40E94560A812F28969C
:10445000EDE00C94B62680E08DCF10E021C01091E5
:104460005802112309F4BCCF809156029091570253
:104470000E949104059708F4B3CF48E050E060E64D
:1044800072E08EE692E00E94CC26892B31F388E020
:10449000E0E6F2E0AEE6B2E001900D928A95E1F737
:1044A000109258029ECF1F920F920FB60F921124B6
:1044B0002F933F934F935F936F937F938F939F932C
:1044C000AF93BF93CF93DF93EF93FF93D091E90026
:1044D000DF708091EC00C82FC17080FDC0E81092A1
:1044E000E9008091F000877F8093F00078940E942B
:1044F000BA0A1092E9008091F00088608093F00081
:10450000CD2BCF70C093E900FF91EF91DF91CF9158
:10451000BF91AF919F918F917F916F915F914F91DB
:104520003F912F910F900FBE0F901F9018951F92E3
:104530000F920FB60F9211242F933F934F935F93D7
:104540006F937F938F939F93AF93BF93EF93FF935B
:104550008091E10082FF09C08091E20082FF05C0E6
:104560008091E1008B7F8093E1008091E10080FFEA
:1045700017C08091E20080FF13C08091E2008E7F1F
:104580008093E2008091E20080618093E20080915C
:10459000D80080628093D80019BC85E080937103B5
:1045A0008091E10084FF2BC08091E20084FF27C04E
:1045B00084E089BD86E089BD89B5982F917080FF20
:1045C000FBCF8091D8008F7D8093D8008091E1004F
:1045D0008F7E8093E1008091E2008F7E8093E200E5
:1045E0008091E20081608093E200809172038823D1
:1045F00009F441C084E0809371038091710380913C
:10460000E10083FF27C08091E20083FF23C08091F7
:10461000E100877F8093E10082E080937103109234
:1046200072038091E1008E7F8093E1008091E2002F
:104630008E7F8093E2008091E20080618093E200AF
:1046400042E060E080E00E94FE038091F00088601C
:104650008093F000FF91EF91BF91AF919F918F9167
:104660007F916F915F914F913F912F910F900FBE6E
:104670000F901F9018958091E30087FD93E0909331
:104680007103BBCF78941F921FB61F9211248F9392
:104690009F93AF93BF938091600390916103A0912A
:1046A0006203B09163030196A11DB11D8093600365
:1046B00090936103A0936203B0936303BF91AF91A2
:1046C0009F918F911F901FBE1F9018951F921FB62C
:1046D0001F9211248F939F93AF93BF9380915F0399
:1046E000811113C08091600390916103A0916203D6
:1046F000B09163034196A11DB11D80936003909317
:104700006103A0936203B0936303BF91AF919F9144
:104710008F911F901FBE1F901895CDB7DEB72897B9
:104720000FB6F894DEBF0FBECDBF84B7877F84BFBE
:104730000FB6F894A895809160008861809360001E
:10474000109260000FBE80E890E00FB6F89480935E
:104750006100909361000FBE87EB95E09093D101CB
:104760008093D0011092E2001092E1008091E0006D
:1047700081608093E0008091D8008F778093D8008B
:1047800019BC8091630081608093630010925F0286
:10479000809163008E7F8093630081E080935F024D
:1047A0001092E2001092E1008091D8008F77809300
:1047B000D8008091D80080688093D8008091D8007C
:1047C0008F7D8093D80084E089BD86E089BD89B55E
:1047D000282F2170522E80FFFACF10927103109271
:1047E00072031092700310926F0342E060E080E069
:1047F0000E94FE038091E1008E7F8093E100809112
:10480000E20081608093E2008091E2008860809302
:10481000E2008091E0008E7F8093E0008091E200D2
:1048200084608093E2007894809171038823A1F0E2
:104830001091E9001F709091EC00892F817090FD1C
:1048400080E8182B1092E9008091E80083FD0E9417
:10485000BA0A1F701093E90082E084BD93E095BD11
:104860009AEF97BD80936E000FEB11E0D8018D9108
:104870008D018F3F11F00E94B905B1E0073C1B0785
:10488000A9F707EC11E06FECE62E61E0F62EF801D7
:1048900081918F018F3F11F00E94B905E016F1065A
:1048A000B1F788E0EEE6F2E0DF01282F1D922A95AD
:1048B000E9F7E0E6F2E0DF011D928A95E9F790E082
:1048C00080E00E940227853E9E4F09F461C065EE9C
:1048D0007EEF90E080E00E94362760E082E090E08A
:1048E0000E94182781E090E090936902809368020B
:1048F00061E083E090E00E94182760E074E184E0CA
:1049000090E00E94362760E086E090E00E94182741
:1049100060E087E090E00E94182740E050E0BA0194
:1049200088E090E00E942A2760E083E290E00E9405
:10493000182760E08CE090E00E94182760E08DE08E
:1049400090E00E94182719821A821B821C821D8205
:104950001E821F82188648E050E067E170E0CE01B9
:1049600001960E94082740E050E0BA018FE190E0F4
:104970000E942A2740E050E0BA018FE090E00E94B8
:104980002A2740E050E0BA0183E190E00E942A2704
:1049900082E090E00E94FA268093760284E090E024
:1049A0000E94022790936D0280936C0283E090E056
:1049B0000E94FA2690E00E9428093D9A459885E0D9
:1049C00091E090935C0380935B0338E1C32ED12C7C
:1049D00040E4442E56E7A52E52E0B52E8091710397
:1049E00016E0853009F487C00E946A2197E7E92E16
:1049F00092E0F92E2EE6822E22E0922ED401F701CB
:104A000091918D9122E0EF37F20709F482C0981757
:104A1000B9F310E022242394D4010D914D01F70144
:104A200031907F01301611F13026652C712C862DC6
:104A30008321A1F079821A830E94A0049C838B8336
:104A40002D8291E0862D802309F490E09E83498198
:104A50005A816B817C818D810E94401F7394660C0A
:104A6000F8E07F12E4CFF701319700831F5F183021
:104A700099F68FB7F894409160035091610360916B
:104A80006203709163038FBF48C0809171038430CB
:104A900021F180E00E94570910925F030FB6F8944D
:104AA000A895C09260000FBE4092600083B7817FDE
:104AB000846083BF83B7816083BF7894889583B710
:104AC0008E7F83BF0FB6F894A895809160008861AF
:104AD00080936000109260000FBE80917003882365
:104AE00051F00E946A21EEE6F2E081918111EDC061
:104AF000AE16BF06D1F780917103853009F4C5CF9A
:104B0000109264030E94A60A0E941C050E94570985
:104B10006BCF98137ECF0E9439218091400188236A
:104B200001F18091490390914A030097D1F00E94CE
:104B300091042091D2023091D3022817390788F4CA
:104B40009091470380914803981709F4ABC00E94E5
:104B5000A81E1092D3021092D20210924A03109211
:104B6000490380918102882369F080917F029091AE
:104B700080020E9491048938934120F010928102B2
:104B80000E9464108091D102882369F00E94A004E1
:104B90002091CF023091D002821B930B8F3F9F4711
:104BA00010F40E948D0D0E941C05909182028917BD
:104BB00079F0809382029FB7F894409160035091FE
:104BC000610360916203709163039FBF0E94570964
:104BD0008FB7F894609060037090610380906203D7
:104BE000909063038FBF8091830290918402A09183
:104BF0008502B0918602A4019301281B390B4A0B50
:104C00005B0BDA01C901181619061A061B060CF00F
:104C1000E5CE609283027092840280928502909227
:104C2000860207E812E08FECE82E82E0F82EE0160C
:104C3000F10609F4D3CED8013C90332081F11196CE
:104C40006D917D918D919C9114979B01AC012619DA
:104C50003709480959091216130614061506FCF0FF
:104C600017964D915C9118971596ED91FC910995C9
:104C7000F8012081321213C061157105810591057B
:104C8000D1F02181328143815481DC01CB01820F3B
:104C9000931FA41FB51F81839283A383B483075FEF
:104CA0001F4FC5CF0E943F1E10924A031092490326
:104CB0000E94A50556CF108211821282138214829F
:104CC0001682158210861782EACFF4E0F9BD19BD6D
:104CD00009B400FEFDCF8091D8008F7D8093D8006D
:104CE0008091E00082608093E0008091E00081FD8F
:104CF000FCCF109264030E94A60AFDCE0024552723
:104D000004C0080E591F880F991F009729F0769547
:104D10006795B8F37105B9F7802D952F0895EE0FBB
:104D2000FF1F0590F491E02D09942F923F924F922E
:104D30005F926F927F928F929F92AF92BF92CF922B
:104D4000DF92EF92FF920F931F93CF93DF93CDB734
:104D5000DEB7CA1BDB0B0FB6F894DEBF0FBECDBFAC
:104D600009942A88398848885F846E847D848C847D
:104D70009B84AA84B984C884DF80EE80FD800C8186
:104D80001B81AA81B981CE0FD11D0FB6F894DEBF69
:104D90000FBECDBFED010895E62FF72FA82FB92F35
:104DA00004C08D910190801921F441505040C8F702
:104DB000881B990B08956817790778F4E62FF72F69
:104DC000A82FB92FE40FF51FA40FB51F02C0029042
:104DD0000E9241505040D8F708950C94EF26E62FDC
:104DE000F72FA82FB92F02C001900D9241505040CB
:104DF000D8F70895F999FECF92BD81BDF89A992709
:104E000080B50895A8E1B0E042E050E00C943E2760
:104E1000DC01A40FB51F4150504048F0CB01840F76
:104E2000951F2E910E94192741505040D0F70895A8
:104E3000262FF999FECF92BD81BDF89A019700B453
:104E4000021639F01FBA20BD0FB6F894FA9AF99AF3
:104E50000FBE08950396272F0E9419270E94182736
:104E6000252F0E941927242F0C9419270196272FEC
:104E70000E9419270C941827DC01CB01FC01F99939
:104E8000FECF06C0F2BDE1BDF89A319600B40D9296
:104E900041505040B8F70895A1E21A2EAA1BBB1B3F
:104EA000FD010DC0AA1FBB1FEE1FFF1FA217B307F6
:104EB000E407F50720F0A21BB30BE40BF50B661F0C
:104EC000771F881F991F1A9469F7609570958095D0
:104ED00090959B01AC01BD01CF010895F894FFCFDF
:104EE000990BC10B580DC10B580DF40B150C580D37
:104EF000110D1E0D581858188F188F182D19B41829
:104F0000B418B4184919D119E019E01998179E1767
:0A4F100089179217A417AA17B0170B
:104F1A00FF00C300018E042B0A8C048D04240A9816
:104F2A0000290000000092002A000000008C002BDB
:104F3A000000000086004C00000000800014010000
:104F4A0000007A00280000000074001D0100000023
:104F5A000101360033003700330234021E024A00D0
:104F6A004D00360237022D002E02AE00AB0034008F
:104F7A00380238002502350231021E403A051F4028
:104F8A003B0520403C0521403D0522403E0523408B
:104F9A003F0524404005818283E200E900EA00B52A
:104FAA0000B600B700CD008301CC008A01920194BB
:104FBA00012102230224022502260227022A02B321
:104FCA0000B4006F0070009F01CB019F02A0029005
:104FDA009192939495966230313233343536370054
:00000001FF
