:100000000C94D6040C940E050C940E050C940E055D
:100010000C940E050C940E050C940E050C940E0514
:100020000C940E050C940E050C944A2C0C941E2D69
:100030000C9484260C940E050C940E050C940E055D
:100040000C940E050C940E050C940E050C940E05E4
:100050000C940E050C940B270C940E050C940E05B5
:100060000C940E050C940E050C940E050C940E05C4
:100070000C940E050C940E050C940E050C940E05B4
:100080000C940E050C940E050C940E050C940E05A4
:100090000C940E050C940E050C940E050C940E0594
:1000A0000C940E050C940E050C940E050763423655
:1000B000B79BD8A71A39685618AEBAAB558C1D3CF9
:1000C000B7CC5763BD6DEDFD753EF6177231BF00BD
:1000D0000000803F05A84CCDB2D44EB93836A902F5
:1000E0000C50B9918688083CA6AAAA2ABE00000036
:1000F000803F167C1E001F002000210022002300EC
:1001000024002B0014001A000800150017001C0022
:100110001800390004001600070009000A000B004F
:100120000D00E10064001D001B0006001900050021
:100130001100E000E300E2008B0000002C002C0026
:1001400000002500260027002D002E0035002A0083
:100150004B000C00120013002F0030003100000093
:100160004E000E000F003300340032002800000063
:10017000000010003600370038008700E50052000C
:1001800000008A000000E6002152E4005000510007
:100190004F0035003A003B003C003D003E003F0070
:1001A0004000010001000100010001000100010008
:1001B00001000100010022520100010001000100C4
:1001C0000100010001000100010001000100010027
:1001D0000100010001000100010000000100010018
:1001E00000004100420043004400450001004C0073
:1001F000A9000100AC00AE00AB000100A8000000A7
:10020000AA0001000100010001000100010000003E
:1002100000000100010001000100010001004B008D
:100220000000010000000100215201004A004E00C0
:100230004D0005782B782C782D782E782F78307813
:1002400031780100010001000100007C0100010083
:100250000100010001002252010001000100010023
:100260000100215201000100010001000100010014
:100270000100010001000100010000002178217847
:100280000000327801000100010001000100207827
:1002900027780100010001000100010001000000B9
:1002A00028780100010001000100010001000000A8
:1002B000000001000100010001000100010025789B
:1002C000000001000000010021520100247826787E
:1002D000237844454255473A2064697361626C65EE
:1002E000642E0A0044454255473A20656E61626CAF
:1002F00065642E0A006C65645F7461736B3A202537
:100300003032580A004F6E6573686F743A2061632B
:10031000746976653A2025640A000A00253038623F
:10032000003A200025303258000A722F6320303105
:100330003233343536370A007267626C6967687425
:100340002074696D65722064697361626C652E0A40
:10035000007267626C696768742074696D657220E9
:10036000656E61626C65642E0A007267626C696713
:1003700068742073657420687376205B4E4F454522
:1003800050524F4D5D3A2025752C25752C25750A48
:10039000007267626C6967687420736574206873A3
:1003A00076205B454550524F4D5D3A2025752C25F2
:1003B000752C25750A007267626C69676874207213
:1003C00061696E626F7720736574206873763A2076
:1003D00025642C25642C25642C25750A007267621F
:1003E0006C696768742064697361626C65205B4541
:1003F0004550524F4D5D3A207267626C6967687470
:100400005F636F6E6669672E656E61626C65203D25
:100410002025750A007267626C6967687420656ED2
:1004200061626C65205B454550524F4D5D3A2072CC
:1004300067626C696768745F636F6E6669672E6573
:100440006E61626C65203D2025750A007267626CE2
:100450006967687420746F67676C65205B454550F9
:10046000524F4D5D3A207267626C696768745F63D2
:100470006F6E6669672E656E61626C65203D202532
:10048000750A007267626C69676874206D6F6465D5
:10049000205B4E4F454550524F4D5D3A2025750A21
:1004A000007267626C69676874206D6F6465205BB9
:1004B000454550524F4D5D3A2025750A00726762DE
:1004C0006C696768745F696E6974207267626C69D1
:1004D0006768745F636F6E6669672E6D6F64652011
:1004E0003D20302E20577269746520646566617501
:1004F0006C742076616C75657320746F204545506F
:10050000524F4D2E0A007267626C696768745F69AA
:100510006E6974207374617274210A007267626C70
:10052000696768745F636F6E6669672E737065656F
:1005300064203D2025640A007267626C69676874F4
:100540005F636F6E6669672E76616C203D2025645F
:100550000A007267626C696768745F636F6E6669D0
:10056000672E736174203D2025640A007267626CF7
:10057000696768745F636F6E6669672E687565206A
:100580003D2025640A007267686C696768745F6360
:100590006F6E6669672E6D6F6465203D2025640A65
:1005A000007267626C696768745F636F6E66696723
:1005B0002E76656C6F63696B6579203D2025640A32
:1005C000007267626C696768745F636F6E66696703
:1005D0002E656E61626C65203D2025640A0072679D
:1005E000626C696768745F636F6E66696720454512
:1005F00050524F4D3A0A001E0F0500047F3F1F6402
:100600003214643214783C1E1E140A05FFAA7F556A
:100610004000010101010101010101020202020287
:10062000020202020303030303030303040404049A
:100630000404040505050505060606060607070762
:10064000070708080808090909090A0A0A0B0B0B19
:100650000C0C0C0D0D0D0E0E0E0F0F0F10101111B6
:10066000111212131314141515161617171818193A
:10067000191A1A1B1B1C1D1D1E1E1F2020212222A1
:10068000232424252626272829292A2B2C2D2D2EE4
:100690002F30313232333435363738393A3B3C3DFE
:1006A0003E3F404142434445464748494A4C4D4EEF
:1006B0004F50515354555658595A5B5D5E5F6162B5
:1006C00064656668696B6C6D6F7072737577787A44
:1006D0007B7D7E8082838587888A8C8E8F9193959F
:1006E00096989A9C9EA0A2A3A5A7A9ABADAFB1B3C3
:1006F000B5B7BABCBEC0C2C4C6C9CBCDCFD1D4D6A3
:10070000D8DBDDDFE2E4E7E9EBEEF0F3F5F8FAFD44
:10071000FF290A002575002F002575005D2800259A
:10072000640020002564002000256400200025646A
:10073000007C0025303258006D6F7573656B6579EC
:10074000205B62746E7C782079207620685D287248
:1007500065702F61636C293A205B000A00253032F6
:100760005820006E6B726F5F7265706F72743A2002
:1007700025303258207C20000A00253032582000D5
:100780006B6579626F6172645F7265706F72743AE3
:100790002025303258207C200064656C5F6B6579C1
:1007A0005F6269743A2063616E27742064656C3AF5
:1007B00020253032580A006164645F6B65795F629E
:1007C00069743A2063616E2774206164643A20255D
:1007D0003032580A0073757370656E64696E6720F5
:1007E0006B6579626F6172640D0A005B575D005B37
:1007F000535D005B525D005B445D005B435D001C2C
:100800000343006C007500650062006F00610072B8
:100810000064002000360036002500000014034369
:10082000006C007500650062006F0061007200647A
:100830000000000403090409025400030100A0FAA7
:100840000904000001030101000921110100012236
:1008500044000705810308000109040100010300A9
:10086000000009211101000122B6000705820320C2
:100870000001090402000103000000092111010028
:100880000122150007058303200001120100020068
:10089000000008EDC120230100010200010631FF24
:1008A0000974A1010975150026FF009520750881BE
:1008B00002C005010902A10185020901A100050983
:1008C0001901290815002501950875018102050106
:1008D000093009311581257F95027508810609388F
:1008E0001581257F950175088106050C0A380215CA
:1008F00081257F950175088106C0C005010980A189
:1009000001850319012AB700150126B70095017565
:10091000108100C0050C0901A101850419012AA05C
:1009200002150126A002950175108100C00501097C
:1009300006A1018506050719E029E715002501959F
:1009400008750181020507190029EF150025019599
:10095000F0750181020508190129059505750191B8
:1009600002950175039101C005010906A101050762
:1009700019E029E715002501950875018102950107
:10098000750881010507190029FF150026FF00954C
:10099000067508810005081901290515002501952E
:1009A0000575019102950175039101C011241FBEC7
:1009B000CFEFDAE0DEBFCDBF04B603FE18C08091F2
:1009C000A3039091A403A091A503B091A60387303F
:1009D000904BA740B04B59F41092A3031092A4037C
:1009E0001092A5031092A603E0E0F8E3099511E048
:1009F000A0E0B1E0E2ECF8E602C005900D92A03F65
:100A0000B107D9F723E0A0EFB1E001C01D92A33AEE
:100A1000B207E1F70E9474150C940B340C9400009B
:100A2000FF93EF93E091F001F091F101309709F01D
:100A30000995EF91FF910895FC018591803011F0A7
:100A4000EFDFFBCF0895FF27E0E230E247FF0CC065
:100A5000419597FF09C0EDE260957095809590955E
:100A6000611D711D811D911D27FF02C0219530E37D
:100A700050E2AA27660F771F881F991FAA1FA41785
:100A800010F0A41B63955A95A9F7AA3008F0A95F46
:100A9000A05DAF93F395611571058105910541F74F
:100AA000ED3211F4EF93F395F21718F43F93F395A9
:100AB000FBCF8F91B5DFFA95E1F70895E991F991B0
:100AC0008591803021F0853219F0AADFF9CF0895A1
:100AD00020E0E89455915532C1F3503311F46894F5
:100AE00055915A3348F4505390F3220F022E220F9F
:100AF000220F200D250FF4CF0EF4219589919991A5
:100B0000533619F3533729F1533559F1BC0188276E
:100B10009927E8945C3621F48991999168945591CC
:100B2000543639F446EF7EF077FF0DC08FEF9FEF1C
:100B30000AC055374AE039F0583540E121F05236C5
:100B400042E009F00895FF93EF937DDFEF91FF916D
:100B5000B7CFFF93EF93FC0181918030B9F360DF51
:100B6000FBCFFF93EF9368DFF1CFDF93CF93CDB748
:100B7000DEB72596A3DFCF91DF9108958330C8F4C7
:100B80006A30B8F44830A8F4E62FF0E09AE0899F84
:100B9000E00DF11D112483E0EE0FFF1F8A95E1F7B0
:100BA000E40FF11DEE0FFF1FEE50FF4F8591949162
:100BB000089581E090E008950E94BE05089581E0C7
:100BC00008950E94DF05089581E008950E94DF05E1
:100BD00008950E94E605089508950E94EC05089581
:100BE000A6E0B0E0E6EFF5E00C94B73249835A8313
:100BF0009E833091F70189819A8131111AC03E811B
:100C0000332399F0222389F00E94D70B182F682FE5
:100C100089819A810E94B40B69817A81812F0E9417
:100C2000EF122696E3E00C94D3320E94C50B182FE6
:100C3000F3CF0E94D70B69817A81F1CFFC01262F77
:100C40004081518162817381848195810E94F00588
:100C50000895CF93DF93EC0161E00E941E06BE0170
:100C60000E94E105DF91CF910895CF93DF93EC01CE
:100C700060E00E941E06BE010E94ED05DF91CF914B
:100C8000089581E008950E9441060895CF93C82FEA
:100C90000E94890A8C2F0E9443062FEF84E39CE078
:100CA000215080409040E1F700C00000CF910895AE
:100CB00081E00E9446060E942F27089580E00E944E
:100CC00046060E94532708950F931F93CF93DF93F7
:100CD0008C0161E00E941E06EC01F8018581811102
:100CE0000E94571EB801CE010E94E905811106C07D
:100CF00080E0DF91CF911F910F910895B801CE014F
:100D00000E94AF238823A1F3B801CE010E943F1FA8
:100D1000882371F3B801CE010E94151F882341F387
:100D2000B801CE010E94761E882311F3F801858157
:100D3000882369F0C330FCE7DF07A1F160F4C1301C
:100D4000ECE7DE0789F1C0F4C115DC4791F0C8017A
:100D50000E94E405CECFCB35ECE7DE0759F1CC3568
:100D6000FCE7DF0721F1CA35DC4789F70E94311023
:100D7000EECF0E945806BCCF9091CE02892F8E7F75
:100D800090FF81608093CE0280FF09C084EE92E0E4
:100D90009F938F930E94B5050F900F90A9CF82ED7E
:100DA00092E0F6CF0E9439100E945E06A1CF0E9409
:100DB0002710CDCF0E943510CACF0E9461260E9415
:100DC000230708950E9427070E94662608958295AA
:100DD00090E09C01220F331F220F331F2C7C95952E
:100DE0008795959587958373282B30E0C901880FE7
:100DF000991F8A7A359527952575822B0895089530
:100E000081E0089581FF02C02C9A08952C980895DE
:100E1000CF93DF93D82F0E940007C82F882319F0A3
:100E20008D2F0E9402078C2FDF91CF910895249A75
:100E30002C980895CF93C82F0E94FF068C2F0E94F4
:100E40000807CF91089580E00E941A0708950E9434
:100E5000F8230E941A070895CF930E94F823C82F01
:100E60008091F2018C1701F1C093F2010E94F026EB
:100E70006093F3017093F4018093F5019093F60170
:100E80008091CE028570853061F41F92CF9385EFFB
:100E900092E09F938F930E94B5050F900F900F9053
:100EA0000F908C2F0E941A07CF910895ADE0B0E00B
:100EB000ECE5F7E00C94B832488759876A877B875E
:100EC0008C879D8791110E94240F1F8286E0FE016E
:100ED0003896DE01119601900D928A95E1F78D8189
:100EE00081110DC029813A814B815C816D817E81A8
:100EF0008F810E946E0E2D96E2E00C94D432CE01CA
:100F000001960E9429068111EDCFF5CFFC012481C5
:100F1000213021F4808191810E94090C089566237B
:100F200029F00E94A0200E94852108950E940C2192
:100F3000FACFCF93C82F882399F08CEF8C0F813A8A
:100F400088F48C2F0E941F25882329F08C2F0E9463
:100F5000E1250E94B80F8C2F0E94CA250E94B80F6D
:100F6000CF91089580E28C0F883048F4C77081E0FB
:100F700001C0880FCA95EAF70E94070FEFCFEBE593
:100F8000EC0FE33040F4F0E0EC59FE4F808190E04C
:100F90000E94B324E5CFE8E5EC0FEB3150F4F0E02C
:100FA000EE0FFF1FE25DFE4F808191810E94D824E9
:100FB000D7CF83E38C0F833198F661E08C2F0E94AA
:100FC0008F07CECF882381F19CEF980F913A28F4B8
:100FD0000E94E1250E94B80F089590E2980F983082
:100FE00050F4877091E001C0990F8A95EAF7892F34
:100FF0000E940D0FEFCF9BE5980F933028F490E0FF
:1010000080E00E94B324089598E5980F9B3128F45E
:1010100090E080E00E94D824089593E3980F9331E4
:1010200018F460E00E948F0708951F93CF93DF9319
:10103000182FEB010E949907209739F4812F0E9405
:10104000E207DF91CF911F9108958FE99FE001970B
:10105000F1F700C000002197EFCF70E060E0893326
:1010600011F460E570E00E9415080895882321F0CE
:101070000E94070F0E94B80F0895882321F00E9454
:101080000D0F0E94B80F0895B0E0A0E0EAE4F8E088
:101090000C94B1326C01D62FC72FFC01158106814B
:1010A00002950F700E94FD0EE82E8823F9F0E12EC4
:1010B0001123E1F08C2F807F803461F080E28D0F6E
:1010C000883008F18C2F807E803221F4D230D8F025
:1010D0000023C9F080914B0382FF15C082E00E947B
:1010E000E80F0E94FD0E91E0E82EE926BC2EB29496
:1010F0009FE0B922FBE0FB15B8F1EB2DF0E0E35FD8
:10110000FB4C0C947132E12CF1CF0C2F0F70C07F8F
:1011100011F00295007F112399F0002359F080E22D
:101120008D0F883010F0D11107C0802F0E94070F5B
:101130000E94B80F8D2F5AC0802F0E94170FF8CF32
:101140008D2F0E94E207002379F080E28D0F883016
:1011500010F0D11104C0802F0E940D0F03C0802F0A
:101160000E941D0F0E94B80FEB2DE850FF0B349723
:1011700020F40E94F8230E941A07EE2089F00E94B2
:10118000F90E80FD0DC0F60115820E94F30E0E943B
:10119000120BC6010E94500A0E94F30E0E94220BFD
:1011A000CDB7DEB7E9E00C94CD322C2F2F70F22EA4
:1011B000C07FC03219F0F29480EFF822DD2341F0B5
:1011C000D130D1F1112309F444C00023F1F0B2CFA2
:1011D00080914B0382FD15C0112359F0FF2029F0A7
:1011E0008F2D0E94070F0E94B80F80E00E94990780
:1011F000BBCF80E00E94E207FF2009F4B5CF8F2D1E
:10120000ABCF112369F0011104C08F2D0E94360865
:10121000ABCF013009F0A8CF8F2D0E943B0FA4CF98
:101220000111A2CF8F2D0E943D088F2D0E94470FE4
:101230008F2D0E942B0F98CF112321F0063008F03C
:1012400093CFE3CF053008F08FCF8F2D0E943D085C
:101250008BCF0023D1F3D93349F43FEF87EE93E0EE
:10126000315080409040E1F700C000008D2F0E9477
:10127000E2077ACF8C2F86958695837069F081304E
:1012800009F072CF8D2F9C2F9370111102C080E056
:1012900090E00E94D82468CF8D2F9C2F937011115D
:1012A00002C080E090E00E94B3245ECF612F8D2FBA
:1012B0000E948F0759CF8C2F8370A1F5111154CF45
:1012C0004D2F429546954770440F440F2D2F2F7098
:1012D00030E0042E02C0220F331F0A94E2F790E0A0
:1012E00080E0D4FF09C08FE090E002C0880F991F12
:1012F0004A95E2F780959095C695C695C370822B66
:10130000932BC23049F058F4C13019F00E94E20A20
:101310002BCF0E94D90A28CF0E94EB0A25CF0E942A
:10132000D60A22CF8695112311F08C2F8170882345
:1013300009F41ACF4D2F429546954770440F440F3C
:101340002D2F2F7030E0042E02C0220F331F0A947D
:10135000E2F790E080E0D4FF09C08FE090E002C0A7
:10136000880F991F4A95E2F780959095C695C69586
:10137000C370822B932BC23049F058F4C13019F05E
:101380000E944D0BF1CE0E94440BEECE0E94560BF4
:10139000EBCE0E94FA0AE8CECF70112329F08C2FF1
:1013A0000E94120B8D2F32CF8D2F0E943D088C2F63
:1013B0000E94220BD9CED23F41F160F4D03FB9F068
:1013C000D13F81F0112309F443C00111B3CE8C2F1A
:1013D0008F711FC0D33F01F1D43FA1F780914B0320
:1013E00082FD24C08C2F8F71112311F312C01123A1
:1013F00041F0053008F0B8CE8C2F8F710E94340B6D
:10140000B3CE063008F0B0CEF7CF8C2F8F7111110C
:10141000CFCF0E94120BA8CE112329F08C2F8F71F1
:101420000E94060BA1CE0E94010B9ECE112331F02B
:1014300063E08C2F8F710E94CA0F96CE81E00E94CC
:10144000E80F023008F490CE82E00E94E80F8CCEC4
:10145000002359F0D93309F009CFEFEFF7EE23E07D
:10146000E150F0402040E1F7FFCE8C2F8F71A0CFEC
:101470000F931F93CF93DF93EC01688179818D8166
:101480000E94140C8C010E945F0B0E94D50AB801C7
:10149000CE010E944408DF91CF911F910F910895D2
:1014A000CF93DF93EC018C81882399F0CE010E94C9
:1014B0006406811111C00E94FD0E882351F08D81B8
:1014C000882339F080914B0382FF03C082E00E94A1
:1014D000E80FDF91CF910895CE010E94380ACE0126
:1014E0000E943506F6CF90E080E00E94B32490E0A1
:1014F00080E00E94D8240E94240F0E94B80F0E940E
:101500003B220E94852108950E94F8250E94730ABB
:1015100008950E94140F0E94840A089592959F7066
:10152000963091F058F4925F9F70923058F4803F5B
:1015300019F030F4883E30F481E008959A5FF4CFDA
:10154000843FD1F380E00895883EB0F3813FD1F726
:10155000F3CFFC012481222339F0808191810E9404
:10156000090C0E948E0A089580E00895A6E0B0E07C
:10157000ECEBFAE00C94B8322696E2E00C94D4320C
:10158000A7E0B0E0E6ECFAE00C94B8322796E2E08F
:101590000C94D43208950E94CA0A08950E94CB0A7E
:1015A0009093230280932202089508950E94CE0A08
:1015B00008952091220230912302822B932B0E94C6
:1015C000CE0A089520912202309123028223932390
:1015D0000E94CE0A08952091220230912302822790
:1015E00093270E94CE0A08950E94CA0A08950E9475
:1015F000F40A08950E94F70A909321028093200232
:10160000089590E080E00E94FA0A089521E030E019
:10161000A90102C0440F551F8A95E2F7CA010E9432
:10162000FA0A089521E030E002C0220F331F8A95A4
:10163000E2F78091200290912102822B932B0E944D
:10164000FA0A089521E030E002C0220F331F8A9584
:10165000E2F720953095809120029091210282231B
:1016600093230E94FA0A089521E030E002C0220F7D
:10167000331F8A95E2F78091200290912102822700
:1016800093270E94FA0A08952091200230912102A6
:10169000822B932B0E94FA0A089520912002309108
:1016A0002102822393230E94FA0A089520912002A6
:1016B00030912102822793270E94FA0A0895089503
:1016C000262F277091E001C0990F2A95EAF723E0B1
:1016D000769567952A95E1F7660F771F660F771F56
:1016E000FA01E60FF71F50E040E0682F70E08191AB
:1016F000DF0111979B01042E02C0369527950A94AD
:10170000E2F7217021952827292328272C934F5F62
:101710005F4F4430510559F70895A82FA77023E073
:10172000969587952A95E1F7880F991F880F991F3D
:10173000FB01E80FF91F50E040E080E0219130E02C
:101740000A2E02C0369527950A94E2F721703327B6
:10175000042E01C0220F0A94EAF7822B4F5F5F4FDD
:101760004430510559F70895262F9A3068F488308F
:1017700058F438E0939FB0011124680F711D48EFB1
:1017800051E0822F0E94600B08959A3070F48830E7
:1017900060F448E0949F9001112468EF71E0820F9B
:1017A000932F911D0E948D0B089580E00895B0E065
:1017B000A0E0EDEDFBE00C94B1327C010091200241
:1017C000109121028091220290912302082B192B63
:1017D000CFE0D0E0CC24C394D12CBC2EC6010C2E7B
:1017E00002C0880F991F0A94E2F780239123892B66
:1017F00049F4219790F7B12C8B2DCDB7DEB7E9E0F6
:101800000C94CD32B7018C2F0E94FB12019789F303
:10181000F3CFCF93DF93EC010E94D70BBE010E9460
:10182000FB12DF91CF9108951F93CF93DF93EB01CC
:101830009091F701992339F0CB010E94090CDF91B7
:10184000CF911F910895882369F0CB010E94D70B97
:10185000182F682FCE010E94B40BBE01812F0E9469
:10186000FB12EDCFCB010E94C50B182FF6CF1F93B3
:10187000CF93DF93C091240217E0809125028C134F
:1018800004C0DF91CF911F910895D0E01C9FF0011B
:101890001D9FF00D1124EA5DFD4F208131814281B1
:1018A00053816481758186810E94C00A2196C77028
:1018B000E4CF20915E0230915F024091600250912E
:1018C00061026091620270916302809164020E94E1
:1018D000C00A0895CF93DF9380916402807F09F05E
:1018E0004DC080916302882309F448C0E09124022E
:1018F00050912502C0915F02D0915E02609160021A
:101900007091610247E05E17C9F18E2F90E0E49F6D
:10191000F0011124EA5DFD4F2481222391F1489FBB
:10192000F001499FF00D1124DF01AA5DBD4F119612
:101930002C9111972C1325C02C912D1322C0159694
:101940002C91159721111DC012962D913C91261BAB
:10195000370B283C3105A8F4809164028F708061B8
:1019600080936402E45DFD4F80818F70806180838D
:101970008EE592E00E94500A0E94370CDF91CF91D1
:101980000895FC013196E770BECF482F20912402C4
:101990009091250257E0291302C080E0089530E0BD
:1019A000529FF001539FF00D1124EA5DFD4F81819C
:1019B000681306C08081481303C085818111EECF72
:1019C0002F5F3F4F2770E7CFA4E1B0E0EAEEFCE0E5
:1019D0000C94AE328C0186E0F801DE011F96019076
:1019E0000D928A95E1F7F8018481E5809EE5A92EA4
:1019F00092E0B92E9091620291111FC08823D1F01C
:101A0000EE20A9F0C8010E94A90AF82E882379F0D7
:101A100087E0F801D50101900D928A95E1F7C501A3
:101A20000E9486070E946A0C0E94590C5FC0C80180
:101A30000E94500AFF24F39459C0C080D180828054
:101A40009380F09063022091600230916102A401C2
:101A5000421B530BFF2009F4F9C0483C510508F024
:101A6000A7C0882309F442C090915F02809164026C
:101A7000282F207F09F05CC09D1116C090915E0256
:101A8000C91212C0E1104EC08F7080618093640251
:101A90000E94590C8EE592E00E94500A80916402E7
:101AA000F8018683F12C22C0E1103CC06D2D8C2DF5
:101AB0000E94C50C6D2D8C2D0E94C50CE82E811145
:101AC000F1CFCF86D88A8F8598890E94090C292F5B
:101AD00022952F70243078F49F702230A8F099233B
:101AE000B9F0F8019681907F99F4FE2C8F2D6496C1
:101AF000ECE00C94CA322A5F2F70223068F0C801E3
:101B00000E94500AEF2CF1CF992311F0882369F33A
:101B1000805E883050F3F3CF803F38F3815F8330AD
:101B200070F7E3CF80916402816080936402BACF42
:101B30009D1113C090915E02C9120FC0E1100DC03B
:101B40008683C8010E94500A87E0F801AEE5B2E042
:101B500001900D928A95E1F767CFC8010E94A90A0A
:101B6000882309F464CFEE2009F461CF80916402E8
:101B7000803288F020915E0230915F023987288799
:101B80009B868A86909162029C871D868E87CE01F5
:101B900008960E94500A87E0F801AEE5B2E0019095
:101BA0000D928A95E1F70E946A0C0E94590C42CF6F
:101BB00090916402292F207FA1F4682D9A8A898A46
:101BC000A6017A899E2D0E94B60A8EE592E00E94B7
:101BD000500A87E0F50111928A95E9F70E94590CA5
:101BE00061CF882309F482CF80915F028D1110C0EC
:101BF00080915E02C8120CC0E1100AC09683C80131
:101C00000E94500A87E0F50111928A95E9F76ECF9C
:101C1000C8010E94A90A882309F409CFEE2009F41B
:101C200006CF80916402803208F4B5CF20915E0225
:101C300030915F023A8329839C828B829091620269
:101C40009D831E828F83CE010196A3CF483C510510
:101C5000B8F5882309F4EECEFE2CEE2009F4E7CE89
:101C600080915F028D111EC080915E02C8121AC061
:101C70008091640280FD0DC0982F907F51F0868383
:101C8000903F09F45ECF982F907F905F8F70892BE3
:101C900057CF87E0F801AEE5B2E001900D928A954A
:101CA000E1F724CFC8010E94A90A811174CF809165
:101CB0006402816080936402C8010E94500A16CFBA
:101CC000682D9A8A898AA6017A899E2D0E94B60A71
:101CD00087E0F50111928A95E9F7A6CEAEE0B0E073
:101CE000E4E7FEE00C94B732288739874A875B87A0
:101CF0006C877D878E87CE0108960E94E40C88232E
:101D0000B1F06C85662341F0288539854A855B856D
:101D10007D858E850E94C00A17E0809124029091F3
:101D2000250289133DC02E96E3E00C94D33287E060
:101D3000FE013896DE01119601900D928A95E1F729
:101D40008C85882349F32091250230E0C901019652
:101D500087709927409124024817190699F097E057
:101D6000929FD001939FB00D1124AA5DBD4FFE013B
:101D7000319601900D929A95E1F7809325020E9489
:101D8000370CCACF0E94890A1092250210922402B1
:101D900087E0EEE5F2E0DF011D928A95E9F7BCCF1E
:101DA000819FC00111248A5D9D4F0E94E40C88230D
:101DB00009F4B9CFE09124021E9FF0011124EA5DDD
:101DC000FD4F2081318142815381648175818681FB
:101DD0000E94C00A8091240290E0019687709927A2
:101DE000809324029ACF80918D0286958695869560
:101DF000089580918D028770089590918D0297705B
:101E000081E009F480E008958091B90208959091ED
:101E1000B902892B8093B902089580959091B902F7
:101E200098239093B90208951092B9020895909161
:101E3000B802892B8093B802089580959091B802DA
:101E400098239093B80208951092B80208950895C7
:101E50000E94270F089590918E02292F282331F098
:101E60008095892380938E020E94280F08950895FB
:101E70000E94370F089590918F02292F2823281749
:101E800029F0982B90938F020E94380F089590911B
:101E90008F02292F282331F08095892380938F0288
:101EA0000E94380F089580918F02882329F01092A4
:101EB0008F0280E00E94380F0895CF93C091B9023D
:101EC0008091B802C82B80918F02882331F0C82BF3
:101ED0000E94FD2481110E94530F8C2FCF910895F1
:101EE000CF93DF93C0910601D09107010E945D0F4F
:101EF0008883C0910601D091070148E050E065E871
:101F000072E0CE010E947E33892B59F088E0FE01F9
:101F1000A5E8B2E001900D928A95E1F7CE010E940A
:101F20000524DF91CF910895CF93DF93C0910401F1
:101F3000D09105010E945D0F8983C0910401D09169
:101F4000050140E250E065E672E0CE010E947E337A
:101F5000892B59F080E2FE01A5E6B2E001900D92D6
:101F60008A95E1F7CE010E945324DF91CF91089525
:101F700080912D01882339F080914A0387FF03C0A7
:101F80000E94940F08950E94700F089508950E9472
:101F9000C60F089590914B0392FF11C098E0899F5E
:101FA00090011124622B60938D020E94120B80918C
:101FB0008D028695869586950E94C70F08950E948A
:101FC000120B089510928D0280E00E94C70F0895B1
:101FD00090918D028095892380938D02282F277000
:101FE00069F4891759F090914B0392FF07C08695C9
:101FF000869586950E94220B0E94E20F0895CF934A
:10200000C82F80914B0382FB992790F99C17E9F028
:10201000C0FB82F980934B0380914A0390914B035C
:102020000E945A1082E00E94E80F8091CE0280FF49
:102030000CC01F92CF9385E093E09F938F930E94F3
:10204000B5050F900F900F900F90CF91089580914C
:102050004B0382FB882780F991E089270E94FF0FBC
:10206000089581E00E94FF0F089580E00E94FF0F15
:1020700008956FEF7FEF90E080E00E94D6330895DF
:1020800090E080E00E94A23321E0853E9E4F09F05F
:1020900020E0822F089582E090E00E94943308951A
:1020A00083E090E00E949433089584E090E00E94E1
:1020B000A2330895BC0184E090E00E94D6330895D5
:1020C000AB01BC018FE090E00E94CA330895AB01E0
:1020D000BC0183E190E00E94CA33089560E070E0A3
:1020E000CB010E946710089560E070E0CB010E9470
:1020F00060100E946E100895A8E0B0E0E2E8F0E100
:102100000C94B83265EE7EEF90E080E00E94D6330A
:1021100060E082E090E00E94B83381E090E090932C
:1021200023028093220261E083E090E00E94B833B2
:1021300060E074E184E090E00E94D63360E086E0E5
:1021400090E00E94B83360E087E090E00E94B833EE
:1021500040E050E0BA0188E090E00E94CA3360E0BD
:1021600083E290E00E94B83360E08CE090E00E944F
:10217000B83360E08DE090E00E94B83319821A8293
:102180001B821C821D821E821F82188648E050E03E
:1021900067E170E0CE0101960E94A83340E050E074
:1021A000BA018FE190E00E94CA330E947410289611
:1021B000E2E00C94D4320E947C100895682F8EE0E7
:1021C00090E00E94B8330895A6E0B0E0EAEEF0E1B6
:1021D0000C94B6320E94E4268C018091BA02909150
:1021E000BB028017910781F019821A820E94E426AF
:1021F000682F49815A81792F80E090E00E9456072C
:102200001093BB020093BA022696E4E00C94D232FB
:102210000E94F0266093CA027093CB028093CC0296
:102220009093CD026093C6027093C7028093C80258
:102230009093C9020895089508950E941B1108956E
:1022400008950E942011089584E199E20E948B155F
:102250000E941C110E941D11089581E008950E94A2
:102260002D1108950E942D110895089508950E943A
:1022700035110E94361108950E944010811102C04C
:102280000E94DB100E944B108093CE020E945510DA
:1022900090934B0380934A030E94501090E00E9459
:1022A000D60A80912002909121020E94F70A089597
:1022B0000E94DB260E94E6140E943C110E94170730
:1022C0000E94121D0E9421110895A6E0B0E0EBE6E5
:1022D000F1E10C94AF320E942F1181110CC00E94C9
:1022E000E4100E94581E0E945D220E942C07269630
:1022F000EBE00C94CB320E94FC148CEBA82E82E015
:10230000B82E750110E0F70101917F01812F0E9425
:10231000F9131F5F1A3009F441C00817A1F3809127
:10232000CE0281FD0E94FF130E943211C82E10E0E0
:1023300099249394812F0E94F913082FF50181911C
:102340005F01081729F1D02ED826F12CEE24E39452
:102350008D2D8E21A9F0CC2099F0F9821A830E944C
:10236000E4269C838B839D8291E0802F8E2109F44B
:1023700090E049815A816B817C818D810E94560752
:10238000F394EE0CF8E0FF12E3CFF50131970083F0
:102390001F5F1A3079F60E940811A3CF0813BFCF30
:1023A0009ECF1F93CF93DF930E940013EC01C115C2
:1023B00080E5D807F0F5C11580E4D80708F09CC087
:1023C000C03ED10520F5CD3CD10508F082C0C83A09
:1023D000D10578F4C53AD10508F073C0C130D105F4
:1023E00019F1209709F1C430D105F0F4D0E0C0E034
:1023F0001BC0C33CD105D0F7C85AD0E0CC0FDD1FBD
:10240000C959DE4F0990D881C02DD4640DC0C115C3
:1024100080E2D80708F0D1C0C11581E0D80708F0E4
:102420005AC0C83ED10510F7CE01DF91CF911F9160
:102430000895C03682E5D80718F5C03482E5D8077C
:1024400008F06BC0C03282E5D80708F05FC0C11544
:1024500082E5D80708F497C02C2F2695269580E2B0
:10246000289F900111248C2F8370C1E0D0E002C01E
:10247000CC0FDD1F8A95E2F7C22BD32BDD68D4CFBA
:10248000C03A82E5D80760F4C03882E5D80708F47E
:1024900059C0CF71D0E0DC2FCC27C46FD06AC4CF35
:1024A000C03C82E5D80708F462C0C03E82E5D80788
:1024B00008F09CCFDC2FCC27CC27DF71C06FD06A0F
:1024C000B3CFC55AD0E0C356DE4FC881D0E0D06448
:1024D000ABCFD065A9CF8D2F0E94A213182FCE01AC
:1024E00099270E940013C12FD0E0DC2FCC27CC27E6
:1024F000DF71C82BD92B98CFCE0199270E940013EA
:10250000CC27DF70C82BD92BD06A8ECFCF71D0E00B
:10251000DC2FCC27C16FD06A87CF2C2F269526952C
:10252000277080E2289F900111248C2F8370C1E0D6
:10253000D0E002C0CC0FDD1F8A95E2F7C22BD32B6F
:10254000DC6872CF2C2F26952695277080E2289F75
:10255000900111248C2F8370C1E0D0E002C0CC0F19
:10256000DD1F8A95E2F7C22BD32BDA685DCF8C2F63
:102570008F710E94A213C82FD0E0DC2FCC27CC276C
:10258000DF71D06251CF8C2F8F710E94A21355E062
:10259000D695C7955A95E1F7CF70D0E0DC2FCC27C0
:1025A000282F30E084FF05C044E0220F331F4A95F6
:1025B000E1F7C22BD32BD06937CF8D2F8F710E94BB
:1025C000A213182FCE0199270E940013C12FD0E02B
:1025D000DC2FCC27CC27DF71C82BD92BD2CF462FAD
:1025E0007A3030F4683020F4672F0E94DC050895BB
:1025F00090E080E008950E94EF120E94D1110895AA
:1026000082389105B9F1B0F48133910509F47DC0A8
:1026100048F48932910509F46DC08A32910509F4B4
:102620007BC008958533910509F45FC08933910516
:1026300009F10895833E9105D9F138F4803E910562
:1026400029F1823E910579F10895863E9105D9F1EF
:10265000873E910509F43EC0843E910541F52091E5
:102660004B0321FF24C080914A0384FD19C087EEEB
:1026700090E0089520914A03237009F05AC02091F8
:102680004B0323FF14C089E290E0089520914A0390
:1026900020FD38C030914B0330FF09C024FF43C0F8
:1026A00090E080E0089520914A0322FDF7CF08953D
:1026B00020914A0322FD3AC030914B0330FD39C0CE
:1026C00024FFF5CFEDCF20914A0323FFF0CF24FD67
:1026D000E7CFCDCF20914A0323FD2EC030914B038D
:1026E00031FFEECF84EE90E0089520914A0325FF5C
:1026F000DECFC9CF20914A0325FD21C020914B0395
:1027000023FFD5CF89E390E0D2CF20914A0326FF63
:10271000CECF8AE290E0089520914A0326FFC7CFEA
:1027200081E390E0089583EE90E0089582EE90E0DA
:10273000089580EE90E0089586EE90E0089585E398
:1027400090E0089590914A0392FF10C041E0282F35
:102750002471243009F040E031E0282F287128301E
:1027600009F030E0431711F02CE0822793FF10C0EE
:1027700041E0282F2471243109F040E031E0282F76
:102780002871283109F030E0431711F02CE082273E
:1027900030914B0330FF10C051E0282F21712130C0
:1027A00009F050E041E0282F2871283009F040E07E
:1027B000541711F029E0822731FF10C041E0282F83
:1027C0002171213109F040E031E0282F28712831B2
:1027D00009F030E0431711F029E0822794FD877E4D
:1027E000089508950E94F113089508950E94F51325
:1027F0000895E82FF0E0EA5AFC4F80810895B0E098
:10280000A0E0E5E0F4E10C94AE3289E293E09F931E
:102810008F930E94B50586E5E82E83E0F82E0F9091
:102820000F90912C812C94E2A92E93E0B92E21E2F5
:10283000C22E23E0D22E0CE113E0CAE1D3E09F9236
:102840008F92BF92AF920E94B505DF92CF920E9405
:10285000B505F70181917F010E94E7061F928F93D2
:102860001F930F930E94B505DF93CF930E94B50588
:102870009FEF891A990AEDB7FEB73C960FB6F89408
:10288000FEBF0FBEEDBFFAE08F169104C1F6CDB7C3
:10289000DEB7ECE00C94CA3280EA8A95F1F708952D
:1028A00000C008950E944C140895F894E82FE29512
:1028B000EF70F0E031A1282F2F7081E090E001C08F
:1028C000880F2A95EAF7982F9095932391A392A1C8
:1028D000892B82A378940895CF93DF93C8EAD1E03F
:1028E00089918F3F11F00E94551481E0C23BD807B7
:1028F000B9F7C0EAD1E089918F3F11F00E945514D9
:1029000081E0C83AD807B9F7DF91CF910895B0E0D8
:10291000A0E0EDE8F4E10C94B232EC01D62E062FE3
:1029200010E0C80188559E4F7C01FC0180818F3FDB
:1029300009F445C0F894E82FE295EF70F0E091A11A
:102940008F7021E030E001C0220F8A95EAF7892FCD
:10295000822B81A382A12095282322A378940E9410
:102960005014E0EAF1E048EA51E031E0C12C219155
:102970002F3F51F1A22FA295AF70B0E090968C91AD
:1029800090E02F7002C0959587952A95E2F780FD1B
:102990001BC0832FC82A330F4E175F0741F7F7017B
:1029A00080818F3F11F00E94551461E0C11001C079
:1029B00060E08D2D0E945214C00FD11FC882CDB788
:1029C000DEB7E8E00C94CE3280E0E4CF0E946C14D5
:1029D0008AE0E6E5F3E0DF01982F1D929A95E9F78A
:1029E000ECE4F3E0DF011D928A95E9F78AE00E94AA
:1029F00037150E94F2130895AAE0B0E0E2E0F5E195
:102A00000C94B5328E010F5F1F4F8AE0F8011192CE
:102A10008A95E9F7F12C6F2DC8010E948714F39471
:102A2000FAE0FF12F8CF4AE050E0B8018CE493E0FE
:102A30000E947E3321E0009709F420E0892B41F0C9
:102A40008AE0F801ACE4B3E001900D928A95E1F7D9
:102A50004AE066E573E08CE493E00E943815182F95
:102A60000E94F613812F2A96E5E00C94D132089546
:102A7000B0E0A0E0EEE3F5E10C94B2326C017B0132
:102A8000042FC22F222379F081E08093D1020E948B
:102A9000E4269093D0028093CF0280E0CDB7DEB7DA
:102AA000E8E00C94CE32D091D102DD23B1F38091D5
:102AB000CF029091D0020E94FC26059770F310E09F
:102AC000A801B601C7010E947E33892B31F0A8010D
:102AD000B601C7010E948B33CD2F1092D1028C2FEB
:102AE000DDCF0E94651108950E947D260E947629FF
:102AF0000E9424110E9490290E9458110E949D2931
:102B00000E94A2290E9471150E94C8290E94AE2726
:102B10000E943711F5CF9093F1018093F001089551
:102B2000EF92FF920F931F93CF93DF93EB01E82F68
:102B3000D1110EC0442321F0F0E0EF5EF94FE49193
:102B40006E2F7E2F8E2FCDB7DEB7E6E00C94D032FD
:102B50000D2F10E0282F30E0442329F02F5E394F4D
:102B6000F901249130E0F6E0CF9FC0011124EFEF8E
:102B7000F0E0BF010E942732AB018C2F90E0880F5C
:102B8000991FA5E5A49FB001A59F700D1124861B78
:102B9000970B982F990F980FBF01601B710B629FC5
:102BA000D001639FB00D729FB00D11248B2F9D9F9C
:102BB000B0011124672F7727EF01C61BD70BBE0189
:102BC000629FE001639FD00D729FD00D11247F01A1
:102BD000E91AF108E09EB001E19E700DF09E700DC3
:102BE0001124672F7727E61BF70BE29F8001E39FF5
:102BF000100DF29F100D1124E12F722F423051055C
:102C000099F048F44115510569F04130510581F0C2
:102C1000EB2F8D2F07C04430510569F080F046300E
:102C20005105B1F76E2F8FCFE22F7B2F812FFACF77
:102C3000E22F7D2FF7CFEB2F822F712FF3CF7B2F3A
:102C4000822FED2FEFCF41E00E9490150895089557
:102C5000682F70E090E080E00E940E3020E030E0CD
:102C60004FE753E40E94312F2BED3FE049E450E45D
:102C70000E9437310E94A4310E94AB2F22EB3AE52B
:102C80004CEB5EE30E94C42E22E03FE24AEA52E4AB
:102C90000E9437310E94DD2F862F08950E9423164F
:102CA0000895CF93DF93762FE901682F842F0E9438
:102CB0004E16798368838A83DF91CF91089580913E
:102CC0006003982F9C7F29F4837084608093600355
:102CD00008958C3AE8F38370886AF8CFB0E0A0E0FA
:102CE000E4E7F6E10C94B23288E090E00E949C3375
:102CF0006B017C0183E290E00E949433282F30E046
:102D000040E050E060E070E080E090E000E20E948F
:102D1000DF32B22FA32FF42FE52FD62FC72F970125
:102D20008601BC29A12BFE295E2F532B2B2F3A2F76
:102D30004F2F6D2F7C2FCDB7DEB7E8E00C94CE324D
:102D4000B0E0A0E0E6EAF6E10C94AE3249015A01A7
:102D50006B017C010E945F168401A4016A2D7B2D0A
:102D600088E090E00E94CA3394014A2D5B2DB601A1
:102D7000C70100E20E94FA32622F83E290E00E94D3
:102D8000B833CDB7DEB7ECE00C94CA32E0E6F3E03E
:102D900085E0808311828FEF828383831482758123
:102DA00025E030E04FEF5FEF60E0868197810E9481
:102DB000A01608958091CE0280FF8BC08EED95E025
:102DC0009F938F930E94B5058091CE020F900F9034
:102DD00080FF7FC08091600381701F928F9381EC90
:102DE00095E09F938F930E94B5058091CE020F903E
:102DF0000F900F900F9080FF6CC0809160038695BC
:102E000081701F928F9381EA95E09F938F930E9428
:102E1000B5058091CE020F900F900F900F9080FF1C
:102E200058C080916003869586951F928F9386E89F
:102E300095E09F938F930E94B5058091CE020F90ED
:102E40000F900F900F9080FF44C0809161031F92FC
:102E50008F938CE695E09F938F930E94B5058091A8
:102E6000CE020F900F900F900F9080FF32C0809194
:102E700062031F928F9382E595E09F938F930E9448
:102E8000B5058091CE020F900F900F900F9080FFAC
:102E900020C0809163031F928F9388E395E09F93F6
:102EA0008F930E94B5058091CE020F900F900F90E6
:102EB0000F9080FF0EC0809164031F928F938CE16E
:102EC00095E09F938F930E94B5050F900F900F9000
:102ED0000F9008958091600380FF03C086958695CA
:102EE000089580E0089590916403933018F49F5FF3
:102EF00090936403882391F02091600330916103E3
:102F00004091620350916303609164037091650383
:102F100080916603909167030E94A016089581E056
:102F20000E947317089590916403992319F09150AA
:102F300090936403882391F02091600330916103A2
:102F40004091620350916303609164037091650343
:102F500080916603909167030E94A016089581E016
:102F60000E949317089560910C018091600380FF87
:102F70000FC070E080910B0123E0829FC0011124FB
:102F8000E091DF01F091E00188599C4F0995089587
:102F900080910D0190910E0123E0829FF001112498
:102FA000E859FC4F891728F71182108212828F5F2F
:102FB0003396F8CF9091600390FF0EC090910D0171
:102FC00020910E0133E0939FF0011124E859FC4F4A
:102FD000921718F00E94B31708958183608342838B
:102FE0009F5F3396F5CFA3E0B0E0E9EFF7E10C94F3
:102FF000B8329091600390FF0AC09E012F5F3F4F4F
:103000000E9451164B8169818A810E94DA172396AA
:10301000E2E00C94D432CF93DF93EC018C810E94D8
:103020002816E0E6F3E0482F628181810E94F317C1
:103030008C818F5F8C83DF91CF910895CF93DF9345
:10304000EC01E0E6F3E0438162818C810E94F3179A
:103050008C818F5F8C83DF91CF910895A3E0B0E0E6
:10306000E4E3F8E10C94B6328C018091D202811134
:103070000AC09E012F5F3F4F4FEF6FEF0E94511626
:103080008A818093D202F8016481613069F0809175
:10309000D20240E0662361F040E0623011F44091DA
:1030A000D20280E060E004C06091D20240E080E0A3
:1030B0000E94DA17F801848190E0019663E070E0E5
:1030C0000E943B3284832396E4E00C94D232A3E046
:1030D000B0E0EDE6F8E10C94AB32082FE62EF42ECA
:1030E000C22E9091600390FF4BC0E92FE695E695C4
:1030F000AE2FB0E0AE54BE4F8C91809322039C7FE4
:10310000943009F041C09E012F5F3F4F802F0E94F5
:1031100051164B8169818A810E94DA1700936103FD
:10312000E0926203F0926303CC2009F48AC02091FC
:1031300060036091640370916503302FA701809153
:103140006603909167030E94A0168091CE0280FFD3
:1031500017C0809163031F928F93809162031F9227
:103160008F93809161031F928F9381E993E09F93E6
:103170008F930E94B5050FB6F894DEBF0FBECDBF8A
:103180002396EFE00C94C732823019F4F090630379
:10319000C5CF863019F400916103C0CF8930D9F3CF
:1031A000893109F0BBCFE9518E2F8170782E8E2F97
:1031B00080958170D82EE695F0E0E45FF94F149188
:1031C000612C96EBA92E93E0B92E60910F01661643
:1031D00018F00E94B317A2CF619EC001112470E0C5
:1031E0000E942732502E71102AC0560E862C912C28
:1031F0008091CE0280FF11C01F921F931F92DF9219
:103200001F925F921F926F92BF92AF920E94B5057C
:103210000FB6F894DEBF0FBECDBF20910D01820E18
:10322000911C9401220F331F280D391D28593C4F42
:103230004F2D6E2D852D0E9451166394C6CF561AC0
:10324000D5CF8091CE0280FF9BCF1F92FF921F921D
:10325000EF921F920F938AE693E089CFE0E6F3E0C6
:103260009181282F4381628180E2890F0E94671833
:10327000089581E00E942E190895E0E6F3E091811F
:10328000282F4381628180EE890F0E94671808957C
:1032900081E00E943D190895E0E6F3E0628121E1BA
:1032A000620F08F46FEF282F438181810E94671815
:1032B000089581E00E944C190895E0E6F3E06281F0
:1032C00021E1621B08F460E0282F438181810E9484
:1032D0006718089581E00E945D190895E0E6F3E023
:1032E000438121E1420F08F44FEF282F6281818151
:1032F0000E946718089581E00E946E190895E0E623
:10330000F3E0438121E1421B08F440E0282F628171
:1033100081810E946718089581E00E947F190895B5
:1033200020E00E9467180895EF92FF921F93CF93B9
:10333000DF93EC0110E0EE24EA94F12C60910F0190
:10334000161770F00E94B3179A818C8190FF27C0E6
:103350008F5F8C83DF91CF911F91FF90EF90089545
:1033600020910D01422F410F5527551FCA019A0187
:10337000220F331F280F391F28593C4F70E0C70117
:103380000E943B32962F8C814091630360916203CF
:10339000199F800D11240E9451161F5FCFCF8150BD
:1033A000D8CFB0E0A0E0E7EDF9E10C94B032FC0139
:1033B00082810FEF80FF01E010E04EE0A42E8091AB
:1033C0000F01181798F00E94B3178091D4020130B2
:1033D00009F04FC0811102C080910F01815080938C
:1033E000D402CDB7DEB7EAE00C94CC32C0910D0127
:1033F000C12ED12CCC0DDD2DD11DCE01880F991FF2
:10340000C80FD91FC859DC4F198218821A8234E0BC
:10341000E32EF12CB12C8091D4028B0D8F301CF156
:103420006A2D0E941932892F082E000C990BC8169C
:10343000D90691F4809163038E9DA0018F9D500D5C
:10344000112455954795559547959E0160916203C6
:10345000809161030E945116B00EF1E0EF1AF1085D
:10346000D1F61F5FACCF87FFDFCF90910F01890F9F
:10347000DBCF90E0019660910F0170E00E943B323B
:10348000AECFFF920F931F93CF93DF9380910D01E7
:1034900090910E0123E0829FF0011124E859FC4F26
:1034A000891708F44BC010E000E093E0F92EE80122
:1034B000219660910F0170E0CE010E943B32209175
:1034C0000D01820F482F50E02091D302022E000CF4
:1034D000330B02171307C4F120910A01022E000CCE
:1034E000330B2017310784F18F9D90011124285947
:1034F0003C4F4091630360916203809161030E949D
:1035000051168E01259799F60E94B31780910901F3
:103510009091D302980F9093D30220910A01280F23
:1035200020930A01121614F494301CF081958093B4
:103530000901CDB7DEB7E5E00C94D13211821082DB
:1035400012828F5F3396ACCFFA01EE0FFF1FE40FAC
:10355000F51FE859FC4F118210821282D2CFB0E0E1
:10356000A0E0E5EBFAE10C94AE32EC014C81042FC3
:1035700010E09801D8010E947F329B01AC010E94AB
:1035800095324B015C01E0E2F0E0E01BF10BA5E5B8
:10359000B0E0AC019B010E9495326B017C019F0160
:1035A000DF010E9477329B01AC010E94A0329B0197
:1035B000AC01280D391D4A1D5B1DC701B6010E94D3
:1035C0004F32F22E822F90E039E23F1520F143E096
:1035D000249F9001112435952795122F109500E016
:1035E00085E5E82EEF1880910F01081718F10E9469
:1035F000B3179C8181E0992319F0903219F48FEF71
:103600008093080180910801890F8C83CDB7DEB7C4
:10361000ECE00C94CA3225E530E0B901681B790B67
:103620009B01220F331F260F371F37FFD4CF2F5F89
:103630003F4FD1CF8E2D00FD8F2D20910D01622F98
:10364000600F7727771F9B01220F331F260F371F2D
:1036500028593C4F412F609162030E9451160F5F21
:10366000C2CF0F931F93CF93DF93EC0110E000E0E4
:1036700090910F019017110609F06CF40E94B31796
:103680008C8190E00196817099278C83DF91CF9196
:103690001F910F91089520910D01A801420F511D16
:1036A0009A01220F331F240F351F28593C4F4C819C
:1036B000609162038091610396959017110651F015
:1036C0004CF0442349F0409163030E9451160F5F70
:1036D0001F4FCECF4423B9F340E0F7CFB0E0A0E0D6
:1036E000E4E7FBE10C94AA32FC01B280748081E033
:1036F000848380E00E942816A82E8FE70E94281657
:10370000C0916303C695C158D0E0CC0FDD1FCD2F0B
:10371000DD27512C75E0672E88248A94912C8A1914
:1037200044244A94C82ED12C80910F01581638F0A9
:103730000E94B317CDB7DEB7E0E10C94C632E52C9A
:10374000F12C82E08B1568F06E9CF0016F9CF00DFF
:103750001124EB52FD4F80916103808380916203BD
:103760008183711023C06E9CF0016F9CF00D1124B9
:10377000EB52FD4F1382128220910D01C701820F7F
:10378000911D9C01220F331F280F391F28593C4FD0
:103790006E9CF0016F9CF00D1124EB52FD4F4281A5
:1037A000618180810E9451165394BECF6E9C80012E
:1037B0006F9C100D11240B521D4FF801838188233B
:1037C000D9F081508383849DC0011124648170E00D
:1037D0000E942732862F0E9428168A19849DC001D4
:1037E0001124B6010E94273280916303689FB001C3
:1037F0001124F8017283C0CF0E946133B4010E948A
:103800003B328C179D070CF0B7CFF2E0FB1598F414
:103810000E946133B4010E943B32F80180830E9410
:103820006133209162032695622F70E00E943B3243
:10383000280FF80121836E9CF0016F9CF00D11247C
:10384000EB52FD4F128280916303893C58F088EC63
:103850006E9CF0016F9CF00D1124EB52FD4F8483A0
:1038600083838ACF8431A0F784E1F2CF6091600333
:103870006695669570E04BE050E080E191E00E9433
:103880007133892B19F481E0809323030E94E4268D
:1038900090931C0380931B038091CE0280FF08C08D
:1038A00081E593E09F938F930E94B5050F900F9051
:1038B0000895109223038091CE0280FF08C088E310
:1038C00093E09F938F930E94B5050F900F900895FA
:1038D0009091600390FF49C09370811147C094603C
:1038E0009093600320916003662309F447C03091F0
:1038F000610340916203509163036091640370918E
:10390000650380916603909167030E94A0168091E1
:10391000CE0280FF10C080916003869586951F922D
:103920008F9381EA94E09F938F930E94B5050F9047
:103930000F900F900F90609160036695669570E010
:103940004BE050E080E191E00E947133892B09F156
:103950000E94591C81E080931E0340916303609193
:103960006203809161030E94901908958B3210F0D8
:10397000986AB6CF880F880F982BB2CF8091CE026D
:1039800080FFD9CF269526951F922F9383E894E048
:10399000CACF0E94361CDECF682F909160039695A7
:1039A000969581E0890F8B3208F081E00E94681CB7
:1039B000089581E00E94CC1C0895682F90916003C7
:1039C000969596958FEF890F09F48AE20E94681CFC
:1039D000089581E00E94DD1C089561E00E94681C4A
:1039E0000895809160038160809360038091CE028E
:1039F00080FF0DC01F9281E08F9385E194E09F933B
:103A00008F930E94B5050F900F900F900F908091AB
:103A10006003869586950E94ED1C089560E00E94E3
:103A2000681C089580912103811156C08091CE02B7
:103A300080FF08C086E095E09F938F930E94B505B4
:103A40000F900F900E946E162093600330936103D5
:103A50004093620350936303609364037093650320
:103A600080936603909367032C7F01F58091CE02CB
:103A700080FF08C08DEB94E09F938F930E94B50563
:103A80000F900F900E94C6160E946E16209360033E
:103A90003093610340936203509363036093640324
:103AA0007093650380936603909367030E945F168B
:103AB0000E94DA1610922303E091DD01F091DE01FD
:103AC00009958091600380FF04C0869586950E94C9
:103AD0000E1D81E0809321030895209160032E7FC5
:103AE000209360033091610340916203509163031E
:103AF0006091640370916503809166039091670300
:103B00000E94A0168091CE0280FF0FC080916003BA
:103B100081701F928F938DED93E09F938F930E94FE
:103B2000B5050F900F900F900F900E94591C0E94A6
:103B3000B31708958091CE0280FF10C0809160037A
:103B4000809581701F928F938CE494E09F938F9364
:103B50000E94B5050F900F900F900F908091600319
:103B600080FF03C00E946D1D08950E94F11C0895FE
:103B70000F931F93CF93DF93809123038823C1F189
:103B800080912203E0916003E695E695E81BE093BF
:103B90001D03823091F5F0E0E85FF94FE491CE2FFC
:103BA000D0E00BE018E180911E03882361F01092B1
:103BB0001E030E94E42690931C0380931B03109223
:103BC000200310921F030E94E426E0911B03F09152
:103BD0001C038E1B9F0B8F3F9F4750F4EC0FFD1F64
:103BE000F0931C03E0931B038BE193E0F80109952C
:103BF000DF91CF911F910F910895863049F4F0E045
:103C0000EB5FF94FE491CE2FD0E00EE118E1CBCF7E
:103C1000893051F4E695F0E0EE5FF94FE491CE2F54
:103C2000D0E004E919E1BFCF8F3051F4E695F0E020
:103C3000E150FA4FE491CE2FD0E001ED19E1B3CF7E
:103C4000853149F4F0E0E450FA4FE491CE2FD0E012
:103C500001E41AE1A8CFC4E3D5E00FEA1AE1883104
:103C600009F4A1CF833239F4EAEFF5E0C591D4919C
:103C70000EE218E198CFC4EFD1E001E31BE18432FA
:103C800009F491CFC0EDD7E007E216E1853209F0E3
:103C90008ACF8E2F63E00E940D32E92FF0E0E950C9
:103CA000FA4FE491CE2FD0E00EE61BE17CCF0895D1
:103CB0000E94B81D0895FA01811101C0FB01099508
:103CC0000895CF93DF93C82FD62F0E946A178C17C1
:103CD00048F00E946A178D1728F40E94D91CDF91C2
:103CE000CF9108958C2F0E94ED1CF9CF1F93CF9395
:103CF000DF93EC01FB011581111110C00E94040F2C
:103D00008272FE01E052F847E531F10508F05EC02D
:103D1000E75EFB4C0C9471320E949A1D812FDF915B
:103D2000CF911F91089549EE5CE169ED7CE10E941D
:103D30005B1EF4CF49ED5CE169EE7CE1F8CF48E42D
:103D400059E169E379E1F3CF49E359E168E479E1C5
:103D5000EECF4AE659E169E579E1E9CF49E559E174
:103D60006AE679E1E4CF4CE859E16BE779E1DFCF2E
:103D70004BE759E16CE879E1DACF4FEA57E16FE8B8
:103D800077E1D5CF4FE857E16FEA77E1D0CF81E017
:103D90000E94ED1CC3CF65E082E00E94611EBECF91
:103DA00068E086E0FACF6EE089E0F7CF64E18FE06B
:103DB000F4CF67E185E1F1CF88E1EACF62E289E102
:103DC000ECCF83E2E5CF6AE285E2E7CF11E0A6CF50
:103DD000579A08954BB14F775BB15068EFB7F8949D
:103DE0009B01220F331F260F371F280F391F28175B
:103DF000390741F4EFBF8FE594E00197F1F700C078
:103E000000000895DC016D91CD0178E05BB9000000
:103E100000C067FF4BB9660F000000C000C000C0C3
:103E20004BB900C07A9591F7E2CFCF93DF93EB01C6
:103E300086319C4711F50E94040F9D81992399F0CA
:103E40008A7A91E009F490E090932403811109C0EB
:103E500089E20E94CA250E94B80F80E0DF91CF91CD
:103E6000089585E3F6CF80912403811104C089E28F
:103E70000E94E125F0CF85E3FBCF81E0EFCFCF9328
:103E8000DF93EC01FB018581882309F4D2C09E01F8
:103E900030572332310508F0B2C00E94551090937C
:103EA0004B0380934A03FE01E150F047E232F105F3
:103EB00020F4E25DFB4C0C94713280914A038160E6
:103EC00080934A0393C080914B03886080934B0397
:103ED0008DC080914A038260F3CF80914A03846051
:103EE000EFCF80914A038860EBCF80914B038160D4
:103EF000EDCF80914B038260E9CF80914A038061CE
:103F0000DFCF80914A038062DBCF80914A038064D7
:103F1000D7CF0E94890A80914A038068D1CF8091CF
:103F20004A038C60CDCF80914B038360CFCF8091CB
:103F30004A038E7FC5CF80914B03877FC7CF809187
:103F40004A038D7FBDCF80914A038B7FB9CF80918B
:103F50004A03877FB5CF80914B038E7FB7CF809187
:103F60004B038D7FB3CF80914A038F7EA9CF809181
:103F70004A038F7DA5CF80914A038F7BA1CF0E94FA
:103F8000890A80914A038F779BCF80914A03837F70
:103F900097CF80914B038C7F99CF80914A0382FB0E
:103FA000992790F921E0922790FB82F990FB83F901
:103FB00087CF80914B03982F909591708E7F892B9E
:103FC00090FB81F983CF90914A03892F8F7B96FFD5
:103FD000806476CF0E94890A90914A03892F97FBCB
:103FE00087F980586DCF81E00E94DE1080914A03EE
:103FF00090914B030E945A100E94890A80E0DF9141
:10400000CF91089580E0F0CF90914A03892F8F7E61
:1040100094FF806155CF90914A03892F8E7F90FF46
:1040200081604ECF90914B03892F877F93FF8860EB
:104030004DCF81E0E4CF282F35EB2303C0011124BD
:1040400097FF04C080589109892F089580589F4F89
:10405000FBCF80912B0380FF0DC06091200170E0A9
:10406000660F771F6038710570F56115710569F18C
:10407000862F089581FF07C06091200184E0689F2A
:10408000B0011124EFCF6091200182FD0AC0809120
:104090002A038823A9F020911F0160912001821733
:1040A00010F088E0ECCF869FC001112433E0880F28
:1040B000991F3A95E1F7622F70E00E943B32D2CF10
:1040C00068E070E0D5CF8FE7089581E00895809192
:1040D0002B0380FF0CC060911C0170E07595679503
:1040E000759567956115710549F1862F089581FFD2
:1040F00006C060911C0170E075956795F3CF6091E3
:104100001C0182FD0BC0909129039923A1F06091BD
:104110001B0180911C01961738F0682F70E0603801
:10412000710500F38FE70895899FC001112470E0A5
:104130000E943B32F4CF61E070E0D7CF81E0089578
:1041400090912E0320912F03922B20913103922BDB
:1041500020913003922B31F098E090932A0391E064
:10416000909329038D3C31F40E94292081958093FE
:104170002F0308958E3C19F40E942920F8CF8F3C1C
:1041800031F40E942920819580932E030895803D6B
:1041900019F40E942920F8CF893D29F40E94672054
:1041A0008093300308958A3D21F40E946720819511
:1041B000F7CF8B3D31F40E946720819580933103C6
:1041C00008958C3D19F40E946720F8CF9FE2980F64
:1041D000983070F4815D990B21E030E001C0220F2E
:1041E0008A95EAF780912D03822B80932D03089501
:1041F0008D3D31F480912B03816080932B030895D2
:104200008E3D21F480912B038260F7CF8F3DB9F76B
:1042100080912B038460F1CF40912E038D3C59F4A3
:1042200080912F0387FF0DC010922F0341110BC007
:1042300010922A0308C08E3C81F480912F03181637
:104240009CF3442381F08091300390913103892BBA
:1042500009F05AC01092290308958F3C49F447FF92
:10426000F0CF10922E0380912F038111ECCFE0CF7D
:10427000803D19F41416ACF3E4CF90913003893DDE
:1042800029F41916F4F610923003DBCF8A3D19F4A5
:1042900097FFD7CFF8CF909131038B3D29F497FF4B
:1042A000D0CF10923103CDCF8C3D19F41916CCF339
:1042B000C8CF9FE2980F983090F4815D990B21E070
:1042C00030E0B90102C0660F771F8A95E2F7CB0193
:1042D000809590912D03892380932D03B2CF8D3D3E
:1042E00031F480912B038E7F80932B03AACF8E3DD8
:1042F00021F480912B038D7FF7CF8F3D09F0A1CF63
:1043000080912B038B7FF0CF08958091CE0283FFA5
:1043100096C088E397E09F938F930E94B5058091A4
:104320002D031F928F9383E397E09F938F930E94B7
:10433000B50581E397E09F938F930E94B505809127
:104340002E03282F082E000C330B3F938F938EE201
:1043500097E09F938F930E94B5058CE297E09F931F
:104360008F930E94B50580912F03282F082E000CF3
:10437000330B3F938F9389E297E09F938F930E9433
:10438000B50587E297E09F938F930E94B5058091D2
:104390003003282F082E000C330B3F938F9384E2B9
:1043A00097E09F938F930E94B50582E297E09F93D9
:1043B0008F930E94B50580913103282F082E000CA1
:1043C000330B3F938F938FE197E09F938F930E94DE
:1043D000B5058CE197E09F938F930E94B5058DB74B
:1043E0009EB780960FB6F8949EBF0FBE8DBF80918A
:1043F0002A031F928F9389E197E09F938F930E94E6
:10440000B50587E197E09F938F930E94B505809152
:104410002B031F928F9384E197E09F938F930E94C9
:10442000B50581E197E09F938F930E94B5058DB705
:104430009EB70C960FB6F8949EBF0FBE8DBF0E941C
:10444000E4269C0190912E0380912F03982B21F05C
:1044500030932803209327039091300380913103F8
:10446000982B21F030932603209325038CE293E0D0
:104470000E94A524089586E0ECE2F3E0DF011D929E
:104480008A95E9F710922A031092290310922B03C0
:104490000895FC01828181110EC0838181110BC0BE
:1044A0008481811108C091E08581811101C090E073
:1044B000892F8170089581E0FCCFA6E0B0E0E3E6AB
:1044C000F2E20C94B73286E0ECE2F3E0DE01119602
:1044D00001900D928A95E1F710922E0310922F030E
:1044E00010923003109231038B819C81892B89F0CB
:1044F00080912703909128030E94FC26AC019091A3
:104500002A039923C9F1809121018417150608F423
:1045100040C08D819E81892B91F0809125039091DF
:1045200026030E94FC26AC0190912903992309F4EB
:104530006AC080911D018417150608F472C0BE017F
:104540006F5F7F4F8CE293E00E941226811105C0BD
:104550008CE293E00E94492281110E94852186E02D
:10456000FE013196ACE2B3E001900D928A95E1F73D
:104570002696E3E00C94D332209122018AE0289F12
:10458000900111242417350720F69F5F90932A038A
:1045900002C09F3FD1F71B81112359F00E942920AF
:1045A0009FEF11160CF491E0899F802D11248093C8
:1045B0002E031C81112359F00E9429209FEF111610
:1045C0000CF491E0899F802D112480932F0380911A
:1045D0002E03882309F49DCF10912F03112309F492
:1045E00098CF0E941B20882351F080932E03812FA7
:1045F0000E941B20882329F080932F038ACF81E01B
:10460000F4CF81E0F9CF20911E018AE0289F90012C
:1046100011242417350708F092CF9F5F9093290348
:1046200002C09F3FD1F71D81112359F00E946720DE
:104630009FEF11160CF491E0899F802D1124809337
:1046400030031E81112359F00E9467209FEF11163D
:104650000CF491E0899F802D112480933103809187
:104660003003882309F46BCF10913103112309F42F
:1046700066CF0E941B20882351F080933003812F46
:104680000E941B20882329F08093310358CF81E0BA
:10469000F4CF81E0F9CF0F931F93CF93DF93C42F13
:1046A000D22FFC0185818823C9F0409334030E94F6
:1046B000E426909333038093320380E28C0F88309A
:1046C00040F4C77081E001C0880FCA95EAF70E94E4
:1046D0003608DF91CF911F910F9108951091340307
:1046E000141332C080913203909133030E94FC2650
:1046F000883C910548F5C0E2CD0F1D17B9F080E266
:10470000810F883040F4177081E001C0880F1A953E
:10471000EAF70E943D08C83048F481E09D2F977069
:1047200001C0880F9A95EAF70E943608802F0E94F0
:104730002D08C83070F6D77081E001C0880FDA9577
:10474000EAF70E943D08C5CF80E28C0F883008F65A
:10475000C77081E001C0880FCA95EAF7F2CF0F93C6
:10476000DB0188519C4787309105A0F5FC01E05B97
:10477000FB4C0C94713206E221EE41EE6AE17CE7DB
:10478000CD010E944B2380E00F91089507E225EEB2
:1047900045EE6BE17CE7F4CF06E221EE40EE68E106
:1047A0007CE7EECF07E225EE44EE69E17CE7E8CF57
:1047B00006E221EE42EE6CE17CE7E2CF07E225EE75
:1047C00046EE6DE17CE7DCCF08E221E045EE6EE1EC
:1047D0007CE7D6CF15968C91882319F0109234037C
:1047E000D3CF81E0D1CF90933A03809339030895DA
:1047F000E0913903F0913A03309729F00190F0816C
:10480000E02D0995089580E00895EF92FF920F93AF
:104810001F93CF93DF93EC01E0913903F0913A03BA
:104820003097E1F10280F381E02D09958091CE026D
:1048300082FF34C080FF0DC088811F928F9380E873
:1048400097E09F938F930E94B5050F900F900F9064
:104850000F907E0186E0E80EF11C0AE717E08091D8
:10486000CE0280FF0BC08A811F928F931F930F93FC
:104870000E94B5050F900F900F900F902196CE15C6
:10488000DF0569F78091CE0280FF08C088E797E0D6
:104890009F938F930E94B5050F900F90CDB7DEB711
:1048A000E6E00C94D032EF92FF920F931F93CF93D8
:1048B000DF93EC01E0913903F0913A03309709F46A
:1048C0003FC086E088830480F581E02DCE01099504
:1048D0008091CE0282FF34C080FF0DC089811F927B
:1048E0008F9383E697E09F938F930E94B5050F9077
:1048F0000F900F900F907E018EE1E80EF11C0DE5F8
:1049000017E08091CE0280FF0BC08A811F928F93A7
:104910001F930F930E94B5050F900F900F900F906B
:104920002196CE15DF0569F78091CE0280FF08C081
:104930008BE597E09F938F930E94B5050F900F90A2
:10494000CDB7DEB7E6E00C94D032E0913903F091B8
:104950003A03309739F022E0DC012C930680F7818E
:10496000E02D09950895A3E0B0E0E9EBF4E20C94A2
:10497000B832209137033091380328173907A1F056
:104980009093380380933703E0913903F0913A0311
:10499000309751F023E029839B838A830084F1853B
:1049A000E02DCE01019609952396E2E00C94D432D5
:1049B000A3E0B0E0EEEDF4E20C94B83220913503C0
:1049C0003091360328173907A1F09093360380936E
:1049D0003503E0913903F0913A03309751F024E028
:1049E00029839B838A830084F185E02DCE01019683
:1049F00009952396E2E00C94D4322091060130917F
:104A000007012E5F3F4F80912D01882379F080911F
:104A10004A0387FF0BC020910401309105012E5FEE
:104A20003F4F9EE180E0915018F4089596E0FACF50
:104A3000F90141919F014423B1F38F5FF4CF8823A3
:104A400021F190912D01992311F190914A0397FF43
:104A50001EC0E82FE695E695E695EE31B0F420917C
:104A6000040130910501E20FF32FF11D228130E0A6
:104A7000877041E050E002C0440F551F8A95E2F76D
:104A80002423352381E0232B91F480E008952091A5
:104A9000060130910701F9013296285F3F4F91914D
:104AA000981721F0E217F307D1F7EFCF81E00895CF
:104AB0009C01FC0132969FEF80E04191461751F036
:104AC0009F3F19F4411101C0982F8F5F8630A9F7DD
:104AD0009F3F09F40895290F311D97FD3A95F9017B
:104AE00062830895FC01329608962191261303C033
:104AF000DF0111971C92E817F907B9F70895E62F1F
:104B0000E695E695E695EE3170F4E80FF92FF11D84
:104B1000677021E030E001C0220F6A95EAF78281D8
:104B2000822B828308958091CE0280FF0CC01F9259
:104B30006F9387EB97E09F938F930E94B5050F903B
:104B40000F900F900F900895E62FE695E695E69565
:104B5000EE3178F4E80FF92FF11D677021E030E0B5
:104B600001C0220F6A95EAF72095828128232283CB
:104B700008958091CE0280FF0CC01F926F9389E947
:104B800097E09F938F930E94B5050F900F900F9021
:104B90000F900895682F80912D01882359F08091FE
:104BA0004A0387FF07C080910401909105010E948C
:104BB0007F25089580910601909107010E94582554
:104BC0000895682F80912D01882359F080914A0320
:104BD00087FF07C080910401909105010E94A425E0
:104BE000089580910601909107010E947225089511
:104BF00080912D01882379F080914A0387FF0BC0B3
:104C0000E0910401F091050132968EE1DF011D92E1
:104C10008A95E9F70895E0910601F091070132962F
:104C200086E0F4CFDC01FB0111969C911197818104
:104C3000981322C012968C911297882319F09281B2
:104C400089131AC013968C911397882319F09381B6
:104C5000891312C015968C911597882319F09581A8
:104C600089130AC014969C91992321F081E0248134
:104C7000291303C080E001C081E081700895089588
:104C80000E943F260895811106C081E080933B0376
:104C90000E944026089582E0F9CF83E080933B0391
:104CA0000E94402608950E944326089581E0809343
:104CB0003B030E94402608950E94562608950895B9
:104CC00008950E9460260895089508950E945F2621
:104CD0000895CF930E9464260E94FC140E946526CA
:104CE000C0E08C2F0E94F913811105C0CF5FCA303C
:104CF000C1F7CF91089581E0FCCF85B7806885BF6B
:104D000085B7806885BF08951F921FB61F92112432
:104D10008F939F93AF93BF9380913C03811113C0F6
:104D20008091920390919303A0919403B091950385
:104D30004196A11DB11D8093920390939303A0937C
:104D40009403B0939503BF91AF919F918F911F9062
:104D50001FBE1F90189580919A03843031F10E94F4
:104D6000DD0610923C0388E190E020E40FB6F89451
:104D7000A895809360000FBE2093600083B7817F69
:104D8000846083BF83B7816083BF7894889583B73D
:104D90008E7F83BF0FB6F894A895809160008861DC
:104DA00080936000109260000FBE08950E94890AEF
:104DB0000E94E206089582E084BD93E095BD9AEFDB
:104DC00097BD80936E0008952FB7F8948091920359
:104DD00090919303A0919403B09195032FBF0895F0
:104DE0002FB7F8946091920370919303809194038C
:104DF000909195032FBF08959C014FB7F89480912F
:104E0000920390919303A0919403B09195034FBFA7
:104E1000821B930B089578941F921FB61F92112442
:104E20008F939F93AF93BF9380919203909193033D
:104E3000A0919403B09195030196A11DB11D80939B
:104E4000920390939303A0939403B0939503BF911F
:104E5000AF919F918F911F901FBE1F90189581E079
:104E60008093E00080E28093D8001092C9008FE127
:104E70009EE40197F1F700C0000087E090EBDC01B1
:104E80008093A3039093A403A093A503B093A603D8
:104E900088E19CE00FB6F894A895809360000FBE5F
:104EA00090936000FFCF88E19CE00FB6F894A8953E
:104EB000809360000FBE90936000FFCF8091480305
:104EC00008959B01BA0190919A039430E9F48F7090
:104ED0008093E9009FEF8091E800915085FD06C026
:104EE00085ED8A95F1F700009111F5CF8091E800EA
:104EF00085FF0AC050E040E0C9010E943E2A80912F
:104F0000E8008E778093E800089543E050E0BC010C
:104F100082E00E946127089546E050E0BC0182E0F3
:104F20000E946127089540E250E0BC0182E00E94A7
:104F300061270895CF93DF93EC0148E050E0BC0176
:104F400081E00E94612788E0FE01A0E4B3E00190C7
:104F50000D928A95E1F7DF91CF91089508958BEF37
:104F600097E09F938F930E94B505809199030F90CE
:104F70000F90811109C00E94CE2B0E942B2C809192
:104F8000E20084608093E200089587EF97E09F93AA
:104F90008F930E94B505109299030F900F9008957A
:104FA00083EF97E09F938F930E94B5050E9456264A
:104FB0000F900F9008958FEE97E09F938F930E942C
:104FC000B5056091960381E0611101C080E00E9407
:104FD0004D260F900F9008958BEE97E09F938F933F
:104FE0000E94B50590919A0381E0943009F080E029
:104FF000609196030E9453260F900F900895209180
:105000003E032F5F822F62E30E940D32992319F035
:1050100020933E03089510923E0380913F0388231E
:10502000F1F080919A038430C1F49091E9009F706F
:105030002091EC00822F817020FD80E8892B93E085
:105040009093E9009091EB0090FF04C09091EE00E6
:1050500097FD08C08F708093E90010923F03089578
:105060001092F1009091E80095FDFACF9091E80040
:1050700090FFF0CF9091E8009E779093E800EACF00
:1050800042E061EC81E00E944A2B42E261EC82E066
:105090000E944A2B42E261EC83E00E944A2B9091ED
:1050A0009A0381E0943009F080E0609196030E94B9
:1050B0004326089580919C03833009F461C030F445
:1050C0008130D1F1823009F49EC008958A3009F40C
:1050D0008AC08B3009F46FC0893009F050C08091CC
:1050E0009B03813209F04BC080919F039091A003F4
:1050F000029708F044C08091E800877F8093E80021
:105100008091E80082FF37C09091F3008091F20017
:10511000029731F48091F100813011F0863021F452
:105120008091F100809348038091E8008B77809311
:10513000E8000E947E2B23C080919B03813AF9F402
:105140008091E800877F8093E80080919F03909191
:10515000A003892B61F468E080E493E070E00E9492
:105160008D2A8091E8008B778093E800089560E0B5
:1051700090E080E0F3CF80919A038111C1CF089530
:1051800080919B03813AD9F780919F039091A0036E
:10519000892BA9F78091E800877F8093E8008091B0
:1051A000E80080FFFCCF80912D018093F100809179
:1051B000E8008E77BCCF80919B03813201F780910C
:1051C0009F039091A003892BD1F68091E800877FFF
:1051D0008093E8000E947E2B80919D0380932D0197
:1051E0000E94890A089580919B03813241F6809143
:1051F000E800877F8093E8000E947E2B80919E03C9
:1052000080934903089580919B03813A09F0B7CFB9
:105210008091E800877F8093E8008091E80080FF1C
:10522000FCCF80914903C1CF9FB7F89410923F0300
:105230009FBF90919A03943009F048C02091E900F3
:105240002F703091EC00932F917030FD90E8922BED
:1052500023E02093E9002091EB0020FF34C020914F
:10526000EE0027FF30C020913D03222321F0209142
:10527000E80025FF28C010923D0326E03091E800A9
:1052800035FF14C08093F1008091E80085FD27C0B0
:105290008091E80080FFFCCF8091E8008E778093BA
:1052A000E8009F709093E90080E0089530919A03A0
:1052B000343049F43091EB0035FD05C0215041F404
:1052C00081E080933D039F709093E9008FEF0895F4
:1052D000EFE9FFE03197F1F700C00000CFCF8FB7C3
:1052E000F89421E020933F038FBFDBCF84B7877F03
:1052F00084BF0FB6F894A895809160008861809370
:105300006000109260000FBE80E890E00FB6F89445
:1053100080936100909361000FBE0E945C26089507
:105320000E94CE2B0E942B2CE2EEF0E08081846064
:10533000808378940E94A92E089583E291E00E94D0
:10534000F323089580919A03853091F48091CE02E1
:1053500080FF08C085ED97E09F938F930E94B5056D
:105360000F900F9080919A03853019F00E94D626F5
:1053700008950E94AB2680919803882399F30E9498
:105380006926882379F30E94282A0E94890AEACF95
:1053900008959A014091A1035091A2030E94D1293E
:1053A0000895492F55274330510521F168F44130C4
:1053B000510509F443C04230510509F444C090E05E
:1053C00080E050E040E026C04132510551F14232C8
:1053D0005105A9F76330710590F7FB01EE0FFF1F30
:1053E000EC51FE4F408151816F517E4FFB01808116
:1053F00090E010C099278130910581F0009729F045
:105400000297E9F6EFEFF7E002C0E3E3F8E08491FA
:1054100090E0AF01F901518340830895EDE1F8E098
:10542000F6CF6330710558F6660F771FFB01E65122
:10543000FE4F4081518189E090E0ECCF82E190E025
:105440004BE858E0E7CF84E590E047E358E0E2CF4F
:1054500080E189BD82E189BD09B400FEFDCF809164
:10546000D8008F7D8093D8008091E0008260809387
:10547000E0008091E00081FDFCCF0895AF92BF92E3
:10548000CF92DF92FF920F931F93CF93DF936C0124
:10549000EB018A010E949D2BF82E811123C001157A
:1054A000110539F0F80180819181C81BD90BC80E14
:1054B000D91EB12CA12C2097A9F08091E80085FD80
:1054C00022C08091E8008E778093E80001151105D5
:1054D000A1F0F80180819181A80EB91EB182A0824D
:1054E00085E0F82E8F2DDF91CF911F910F91FF90C6
:1054F000DF90CF90BF90AF9008950E949D2B88239E
:10550000D1F2F82EEFCFF60181916F018093F10077
:105510002197FFEFAF1ABF0ACECFFC018091A10304
:105520009091A20386179707A0F06115710529F4E1
:105530009091E8009E779093E80090E061157105E6
:1055400051F4911108C08091E80082FF34C080E0DE
:105550000895BC01F2CF80919A038823C1F1853070
:10556000C1F18091E80083FD30C08091E80082FDA8
:10557000EACF8091E80080FFE1CF8091F300209195
:10558000F200382F6115710519F02830310558F0F7
:1055900091E02830310509F090E02091E8002E7765
:1055A0002093E800CBCF81918093F1006150710985
:1055B0002F5F3F4FE7CF80919A03882341F08530DA
:1055C00041F08091E80083FFBECF81E0089582E042
:1055D000089583E00895FC018091A1039091A203B6
:1055E00086179707A0F06115710529F48091E800EE
:1055F0008E778093E80090E06115710551F4911168
:1056000008C08091E80082FF35C080E00895BC01A9
:10561000F2CF80919A038823C9F18530C9F1809136
:10562000E80083FD31C08091E80082FDEACF8091DF
:10563000E80080FFE1CF8091F3002091F200382F45
:105640006115710519F02830310558F091E02830C6
:10565000310509F090E08091E8008E778093E800B2
:10566000CBCF84918093F1003196615071092F5F07
:105670003F4FE6CF80919A03882341F0853041F077
:105680008091E80083FFBDCF81E0089582E0089516
:1056900083E00895982F973028F08F708093E90069
:1056A00081E008959093E900242F762F50E0981719
:1056B00031F07091EC002091ED005091F00021FD4F
:1056C00002C09F5FE8CF3091EB003E7F3093EB004C
:1056D0003091ED003D7F3093ED003091EB00316073
:1056E0003093EB007093EC002093ED005093F000AA
:1056F0002091EE0027FDE5CF80E0089580919B0387
:1057000087FF13C08091E80082FF06C08091E80007
:105710008B778093E80004C080919A038111F2CFC7
:10572000089580919A038823D9F38091E80080FF3F
:10573000F8CF8091E8008E77ECCF2091E400309193
:10574000E50095E6A9012091EC00822F817020FFF1
:1057500006C08091E80080FF06C080E00895209197
:10576000E80022FD1AC080919A03882389F08530D1
:1057700089F08091EB0085FD0FC02091E40030910D
:10578000E50042175307F9F29150E1F684E00895DD
:1057900082E0089583E0089581E008950E943D2C01
:1057A0000E94452CE0EEF0E0808181608083E8ED8E
:1057B000F0E080818F77808319BCA7EDB0E08C91F9
:1057C0008E7F8C9380818F7E8083109299030895C1
:1057D0000F931F93CF93DF930E943D2C0E94452C83
:1057E000C8EDD0E088818F7788838881806888833E
:1057F00088818F7D888319BC10929A03109296033A
:10580000109298031092970300EE10E0F801808147
:105810008B7F808388818160888342E060E080E0C4
:105820000E944A2BE1EEF0E080818E7F8083E2EEE1
:10583000F0E0808181608083808188608083F801CE
:1058400080818E7F8083888180618883DF91CF9182
:105850001F910F910895E8EDF0E080818F7E8083A5
:10586000E7EDF0E080818160808384E082BF81E0A9
:10587000809399030E94E82B0895E8EDF0E0808181
:105880008E7F80831092E20008951092DA001092C9
:10589000E10008951F920F920FB60F9211242F93DB
:1058A0003F934F935F936F937F938F939F93AF93A8
:1058B000BF93EF93FF938091E10082FF0BC0809133
:1058C000E20082FF07C08091E1008B7F8093E100BE
:1058D0000E94FF278091DA0080FF19C08091D800D4
:1058E00080FF15C08091DA008E7F8093DA0080916E
:1058F000D90080FF96C080E189BD82E189BD09B4ED
:1059000000FEFDCF81E080939A030E94AF27809133
:10591000E10080FF19C08091E20080FF15C08091F6
:10592000E2008E7F8093E2008091E20080618093AC
:10593000E2008091D80080628093D80019BC85E095
:1059400080939A030E94DB278091E10084FF2BC0A3
:105950008091E20084FF27C080E189BD82E189BD9A
:1059600089B5982F917080FFFBCF8091D8008F7DF3
:105970008093D8008091E1008F7E8093E100809138
:10598000E2008F7E8093E2008091E200816080934C
:10599000E20080919603882309F449C084E0809353
:1059A0009A030E94EC278091E10083FF29C0809137
:1059B000E20083FF25C08091E100877F8093E100B2
:1059C00082E080939A03109296038091E1008E7F8B
:1059D0008093E1008091E2008E7F8093E2008091CD
:1059E000E20080618093E20042E060E080E00E949B
:1059F0004A2B8091F00088608093F0000E94D027AD
:105A0000FF91EF91BF91AF919F918F917F916F9196
:105A10005F914F913F912F910F900FBE0F901F906C
:105A2000189519BC10929A030E94C52770CF8091D7
:105A3000E30087FD93E090939A03B3CF1F920F92F8
:105A40000FB60F9211242F933F934F935F936F9351
:105A50007F938F939F93AF93BF93CF93DF93EF93F6
:105A6000FF93D091E900DF708091EC00C82FC170E6
:105A700080FDC0E81092E9008091F000877F80935C
:105A8000F00078940E94622D1092E9008091F0005D
:105A900088608093F000CD2BCF70C093E900FF9118
:105AA000EF91DF91CF91BF91AF919F918F917F91B6
:105AB0006F915F914F913F912F910F900FBE0F907B
:105AC0001F901895AAE2B0E0E8E6FDE20C94B73228
:105AD0008BE993E02091F100FC012193CF01F3E0E9
